{
  "_format": "hh-sol-artifact-1",
  "contractName": "Contract",
  "sourceName": "contracts/Contract.sol",
  "abi": [
    {
      "inputs": [
        {
          "internalType": "string",
          "name": "_uri",
          "type": "string"
        }
      ],
      "stateMutability": "nonpayable",
      "type": "constructor"
    },
    {
      "anonymous": false,
      "inputs": [
        {
          "indexed": true,
          "internalType": "address",
          "name": "account",
          "type": "address"
        },
        {
          "indexed": true,
          "internalType": "address",
          "name": "operator",
          "type": "address"
        },
        {
          "indexed": false,
          "internalType": "bool",
          "name": "approved",
          "type": "bool"
        }
      ],
      "name": "ApprovalForAll",
      "type": "event"
    },
    {
      "anonymous": false,
      "inputs": [
        {
          "indexed": false,
          "internalType": "uint256",
          "name": "id",
          "type": "uint256"
        },
        {
          "indexed": false,
          "internalType": "uint256",
          "name": "amount",
          "type": "uint256"
        },
        {
          "indexed": true,
          "internalType": "address",
          "name": "to",
          "type": "address"
        },
        {
          "indexed": false,
          "internalType": "uint256",
          "name": "cost",
          "type": "uint256"
        },
        {
          "indexed": false,
          "internalType": "uint256",
          "name": "timestamp",
          "type": "uint256"
        }
      ],
      "name": "Minted",
      "type": "event"
    },
    {
      "anonymous": false,
      "inputs": [
        {
          "indexed": true,
          "internalType": "address",
          "name": "previousOwner",
          "type": "address"
        },
        {
          "indexed": true,
          "internalType": "address",
          "name": "newOwner",
          "type": "address"
        }
      ],
      "name": "OwnershipTransferred",
      "type": "event"
    },
    {
      "anonymous": false,
      "inputs": [
        {
          "indexed": false,
          "internalType": "uint256[]",
          "name": "ids",
          "type": "uint256[]"
        },
        {
          "indexed": false,
          "internalType": "uint256[]",
          "name": "amounts",
          "type": "uint256[]"
        },
        {
          "indexed": true,
          "internalType": "address",
          "name": "to",
          "type": "address"
        },
        {
          "indexed": false,
          "internalType": "uint256",
          "name": "timestamp",
          "type": "uint256"
        }
      ],
      "name": "Saled",
      "type": "event"
    },
    {
      "anonymous": false,
      "inputs": [
        {
          "indexed": true,
          "internalType": "address",
          "name": "operator",
          "type": "address"
        },
        {
          "indexed": true,
          "internalType": "address",
          "name": "from",
          "type": "address"
        },
        {
          "indexed": true,
          "internalType": "address",
          "name": "to",
          "type": "address"
        },
        {
          "indexed": false,
          "internalType": "uint256[]",
          "name": "ids",
          "type": "uint256[]"
        },
        {
          "indexed": false,
          "internalType": "uint256[]",
          "name": "values",
          "type": "uint256[]"
        }
      ],
      "name": "TransferBatch",
      "type": "event"
    },
    {
      "anonymous": false,
      "inputs": [
        {
          "indexed": true,
          "internalType": "address",
          "name": "operator",
          "type": "address"
        },
        {
          "indexed": true,
          "internalType": "address",
          "name": "from",
          "type": "address"
        },
        {
          "indexed": true,
          "internalType": "address",
          "name": "to",
          "type": "address"
        },
        {
          "indexed": false,
          "internalType": "uint256",
          "name": "id",
          "type": "uint256"
        },
        {
          "indexed": false,
          "internalType": "uint256",
          "name": "value",
          "type": "uint256"
        }
      ],
      "name": "TransferSingle",
      "type": "event"
    },
    {
      "anonymous": false,
      "inputs": [
        {
          "indexed": false,
          "internalType": "string",
          "name": "value",
          "type": "string"
        },
        {
          "indexed": true,
          "internalType": "uint256",
          "name": "id",
          "type": "uint256"
        }
      ],
      "name": "URI",
      "type": "event"
    },
    {
      "inputs": [
        {
          "internalType": "address",
          "name": "account",
          "type": "address"
        },
        {
          "internalType": "uint256",
          "name": "id",
          "type": "uint256"
        }
      ],
      "name": "balanceOf",
      "outputs": [
        {
          "internalType": "uint256",
          "name": "",
          "type": "uint256"
        }
      ],
      "stateMutability": "view",
      "type": "function"
    },
    {
      "inputs": [
        {
          "internalType": "address[]",
          "name": "accounts",
          "type": "address[]"
        },
        {
          "internalType": "uint256[]",
          "name": "ids",
          "type": "uint256[]"
        }
      ],
      "name": "balanceOfBatch",
      "outputs": [
        {
          "internalType": "uint256[]",
          "name": "",
          "type": "uint256[]"
        }
      ],
      "stateMutability": "view",
      "type": "function"
    },
    {
      "inputs": [
        {
          "internalType": "uint256[]",
          "name": "tokenIds",
          "type": "uint256[]"
        },
        {
          "internalType": "uint256[]",
          "name": "amounts",
          "type": "uint256[]"
        }
      ],
      "name": "buyFromServer",
      "outputs": [],
      "stateMutability": "nonpayable",
      "type": "function"
    },
    {
      "inputs": [],
      "name": "deposit",
      "outputs": [],
      "stateMutability": "payable",
      "type": "function"
    },
    {
      "inputs": [],
      "name": "getAllNFTs",
      "outputs": [
        {
          "components": [
            {
              "internalType": "uint256",
              "name": "id",
              "type": "uint256"
            },
            {
              "internalType": "uint256",
              "name": "amount",
              "type": "uint256"
            },
            {
              "internalType": "address",
              "name": "owner",
              "type": "address"
            },
            {
              "internalType": "uint256",
              "name": "cost",
              "type": "uint256"
            },
            {
              "internalType": "uint256",
              "name": "timestamp",
              "type": "uint256"
            }
          ],
          "internalType": "struct Contract.SaleStruct[]",
          "name": "",
          "type": "tuple[]"
        }
      ],
      "stateMutability": "view",
      "type": "function"
    },
    {
      "inputs": [
        {
          "internalType": "uint256",
          "name": "tokenId",
          "type": "uint256"
        }
      ],
      "name": "getAnNFTs",
      "outputs": [
        {
          "components": [
            {
              "internalType": "uint256",
              "name": "id",
              "type": "uint256"
            },
            {
              "internalType": "uint256",
              "name": "amount",
              "type": "uint256"
            },
            {
              "internalType": "address",
              "name": "owner",
              "type": "address"
            },
            {
              "internalType": "uint256",
              "name": "cost",
              "type": "uint256"
            },
            {
              "internalType": "uint256",
              "name": "timestamp",
              "type": "uint256"
            }
          ],
          "internalType": "struct Contract.SaleStruct",
          "name": "",
          "type": "tuple"
        }
      ],
      "stateMutability": "view",
      "type": "function"
    },
    {
      "inputs": [
        {
          "internalType": "address",
          "name": "account",
          "type": "address"
        },
        {
          "internalType": "address",
          "name": "operator",
          "type": "address"
        }
      ],
      "name": "isApprovedForAll",
      "outputs": [
        {
          "internalType": "bool",
          "name": "",
          "type": "bool"
        }
      ],
      "stateMutability": "view",
      "type": "function"
    },
    {
      "inputs": [
        {
          "internalType": "uint256",
          "name": "nftType",
          "type": "uint256"
        },
        {
          "internalType": "uint256",
          "name": "amount",
          "type": "uint256"
        }
      ],
      "name": "mint",
      "outputs": [],
      "stateMutability": "nonpayable",
      "type": "function"
    },
    {
      "inputs": [],
      "name": "owner",
      "outputs": [
        {
          "internalType": "address",
          "name": "",
          "type": "address"
        }
      ],
      "stateMutability": "view",
      "type": "function"
    },
    {
      "inputs": [],
      "name": "paused",
      "outputs": [
        {
          "internalType": "bool",
          "name": "",
          "type": "bool"
        }
      ],
      "stateMutability": "view",
      "type": "function"
    },
    {
      "inputs": [
        {
          "internalType": "address",
          "name": "to",
          "type": "address"
        },
        {
          "internalType": "uint256",
          "name": "amount",
          "type": "uint256"
        }
      ],
      "name": "payTo",
      "outputs": [],
      "stateMutability": "nonpayable",
      "type": "function"
    },
    {
      "inputs": [],
      "name": "renounceOwnership",
      "outputs": [],
      "stateMutability": "nonpayable",
      "type": "function"
    },
    {
      "inputs": [
        {
          "internalType": "address",
          "name": "from",
          "type": "address"
        },
        {
          "internalType": "address",
          "name": "to",
          "type": "address"
        },
        {
          "internalType": "uint256[]",
          "name": "ids",
          "type": "uint256[]"
        },
        {
          "internalType": "uint256[]",
          "name": "amounts",
          "type": "uint256[]"
        },
        {
          "internalType": "bytes",
          "name": "data",
          "type": "bytes"
        }
      ],
      "name": "safeBatchTransferFrom",
      "outputs": [],
      "stateMutability": "nonpayable",
      "type": "function"
    },
    {
      "inputs": [
        {
          "internalType": "address",
          "name": "from",
          "type": "address"
        },
        {
          "internalType": "address",
          "name": "to",
          "type": "address"
        },
        {
          "internalType": "uint256",
          "name": "id",
          "type": "uint256"
        },
        {
          "internalType": "uint256",
          "name": "amount",
          "type": "uint256"
        },
        {
          "internalType": "bytes",
          "name": "data",
          "type": "bytes"
        }
      ],
      "name": "safeTransferFrom",
      "outputs": [],
      "stateMutability": "nonpayable",
      "type": "function"
    },
    {
      "inputs": [
        {
          "internalType": "address",
          "name": "operator",
          "type": "address"
        },
        {
          "internalType": "bool",
          "name": "approved",
          "type": "bool"
        }
      ],
      "name": "setApprovalForAll",
      "outputs": [],
      "stateMutability": "nonpayable",
      "type": "function"
    },
    {
      "inputs": [
        {
          "internalType": "bool",
          "name": "_state",
          "type": "bool"
        }
      ],
      "name": "setPause",
      "outputs": [],
      "stateMutability": "nonpayable",
      "type": "function"
    },
    {
      "inputs": [
        {
          "internalType": "bytes4",
          "name": "interfaceId",
          "type": "bytes4"
        }
      ],
      "name": "supportsInterface",
      "outputs": [
        {
          "internalType": "bool",
          "name": "",
          "type": "bool"
        }
      ],
      "stateMutability": "view",
      "type": "function"
    },
    {
      "inputs": [
        {
          "internalType": "address",
          "name": "newOwner",
          "type": "address"
        }
      ],
      "name": "transferOwnership",
      "outputs": [],
      "stateMutability": "nonpayable",
      "type": "function"
    },
    {
      "inputs": [
        {
          "internalType": "uint256",
          "name": "",
          "type": "uint256"
        }
      ],
      "name": "uri",
      "outputs": [
        {
          "internalType": "string",
          "name": "",
          "type": "string"
        }
      ],
      "stateMutability": "view",
      "type": "function"
    }
  ],
  "bytecode": "0x60806040526003805460ff60a01b191690553480156200001e57600080fd5b5060405162002697380380620026978339810160408190526200004191620002fa565b806200004d81620001d3565b506200005933620001ec565b506004602081905260017fabd6e7cb50984ff9c2f3e18a2660c3353dadf4e3291deeb275dae2cd1e44fe055560027f91da3fd0782e51c6b3986e9e672fd566868e71f3dbc2d6c2cd6fbb3e361af2a75560037f04cde762ef08b6b6c5ded8e8c4c0b3f4e5c9ad7342c88fcc93681b4588b73f05557f5c6b02db8b672415ffad906d7ccee10bd53dbad7d0b29e2bc0e50c93d5f310935560057ff7deed9399d719bf61dcb1322c056a03a885c275ab093673b0cc182b84bea0615560067feaa72e3626d79eea854e214b64a34b95d0c9348f5b8df0b074d774f7dba83c655560077f083fc81be30b6287dea23aa60f8ffaf268f507cdeac82ed9644e506b59c54ff05560087f0a56194ab293ddb0061a682f5e6edaea4986ae06e1ce58a7ee7f74df8d95443d5560097ffb8cf1d12598d1a039dd1d106665851a96aadf67d0d9ed76fceea282119208b7556103e8600052600a7f290f3bb17f303edd0f106ab04bdb0515d193106e8c2b48d993115d216da01cb15562000413565b8051620001e89060029060208401906200023e565b5050565b600380546001600160a01b038381166001600160a01b0319831681179093556040519116919082907f8be0079c531659141344cd1fd0a4f28419497f9722a3daafe3b4186f6b6457e090600090a35050565b8280546200024c90620003d6565b90600052602060002090601f016020900481019282620002705760008555620002bb565b82601f106200028b57805160ff1916838001178555620002bb565b82800160010185558215620002bb579182015b82811115620002bb5782518255916020019190600101906200029e565b50620002c9929150620002cd565b5090565b5b80821115620002c95760008155600101620002ce565b634e487b7160e01b600052604160045260246000fd5b600060208083850312156200030e57600080fd5b82516001600160401b03808211156200032657600080fd5b818501915085601f8301126200033b57600080fd5b815181811115620003505762000350620002e4565b604051601f8201601f19908116603f011681019083821181831017156200037b576200037b620002e4565b8160405282815288868487010111156200039457600080fd5b600093505b82841015620003b8578484018601518185018701529285019262000399565b82841115620003ca5760008684830101525b98975050505050505050565b600181811c90821680620003eb57607f821691505b602082108114156200040d57634e487b7160e01b600052602260045260246000fd5b50919050565b61227480620004236000396000f3fe6080604052600436106101135760003560e01c80637bf08621116100a0578063d0e30db011610064578063d0e30db0146101c8578063e0391b0914610322578063e985e9c514610344578063f242432a1461038d578063f2fde38b146103ad57600080fd5b80637bf086211461027a5780638da5cb5b1461029a578063a22cb465146102c2578063b1f6e53f146102e2578063bedb86fb1461030257600080fd5b80632eb2c2d6116100e75780632eb2c2d6146101ca5780634e1273f4146101ea5780635c975abb1461021757806368ef9d3c14610238578063715018a61461026557600080fd5b8062fdd58e1461011857806301ffc9a71461014b5780630e89341c1461017b5780631b2ef1ca146101a8575b600080fd5b34801561012457600080fd5b506101386101333660046117d6565b6103cd565b6040519081526020015b60405180910390f35b34801561015757600080fd5b5061016b610166366004611816565b610466565b6040519015158152602001610142565b34801561018757600080fd5b5061019b61019636600461183a565b6104b6565b60405161014291906118a0565b3480156101b457600080fd5b506101c86101c33660046118b3565b61054a565b005b3480156101d657600080fd5b506101c86101e5366004611a21565b61074f565b3480156101f657600080fd5b5061020a610205366004611acb565b61079b565b6040516101429190611bd1565b34801561022357600080fd5b5060035461016b90600160a01b900460ff1681565b34801561024457600080fd5b5061025861025336600461183a565b6108c5565b6040516101429190611be4565b34801561027157600080fd5b506101c8610977565b34801561028657600080fd5b506101c86102953660046117d6565b61098b565b3480156102a657600080fd5b506003546040516001600160a01b039091168152602001610142565b3480156102ce57600080fd5b506101c86102dd366004611c32565b6109f8565b3480156102ee57600080fd5b506101c86102fd366004611c65565b610a07565b34801561030e57600080fd5b506101c861031d366004611cb2565b610b65565b34801561032e57600080fd5b50610337610b8b565b6040516101429190611ccd565b34801561035057600080fd5b5061016b61035f366004611d4c565b6001600160a01b03918216600090815260016020908152604080832093909416825291909152205460ff1690565b34801561039957600080fd5b506101c86103a8366004611d76565b610c1f565b3480156103b957600080fd5b506101c86103c8366004611ddb565b610c64565b60006001600160a01b03831661043d5760405162461bcd60e51b815260206004820152602a60248201527f455243313135353a2061646472657373207a65726f206973206e6f742061207660448201526930b634b21037bbb732b960b11b60648201526084015b60405180910390fd5b506000818152602081815260408083206001600160a01b03861684529091529020545b92915050565b60006001600160e01b03198216636cdb3d1360e11b148061049757506001600160e01b031982166303a24d0760e21b145b8061046057506301ffc9a760e01b6001600160e01b0319831614610460565b6060600280546104c590611df6565b80601f01602080910402602001604051908101604052809291908181526020018280546104f190611df6565b801561053e5780601f106105135761010080835404028352916020019161053e565b820191906000526020600020905b81548152906001019060200180831161052157829003601f168201915b50505050509050919050565b610552610cdd565b600354600160a01b900460ff16156105a65760405162461bcd60e51b81526020600482015260176024820152764e46547320756e646572206d61696e74656e616e63652160481b6044820152606401610434565b60008281526004602090815260408083205481519283019091529181526105d290339083908590610d37565b60006105e6846706f05b59d3b20000611e47565b6040805160a08101825284815260208082018781523383850181815260608086018881524260808089018281526005805460018101825560008290529a517f036b6384b5eca791c62761152d0c79bb0604c104a5fb6f4eb0703f3154bb3db09b9091029a8b015596517f036b6384b5eca791c62761152d0c79bb0604c104a5fb6f4eb0703f3154bb3db18a015593517f036b6384b5eca791c62761152d0c79bb0604c104a5fb6f4eb0703f3154bb3db2890180546001600160a01b0319166001600160a01b0390921691909117905590517f036b6384b5eca791c62761152d0c79bb0604c104a5fb6f4eb0703f3154bb3db388015593517f036b6384b5eca791c62761152d0c79bb0604c104a5fb6f4eb0703f3154bb3db49096019590955585518981529384018a905294830186905292820152929350917fa6fab0f8def4cda731cc57e1237e5c4cdd5afc296a84c60accd4c7848f7bf21e910160405180910390a250505050565b6001600160a01b03851633148061076b575061076b853361035f565b6107875760405162461bcd60e51b815260040161043490611e66565b6107948585858585610e11565b5050505050565b606081518351146108005760405162461bcd60e51b815260206004820152602960248201527f455243313135353a206163636f756e747320616e6420696473206c656e677468604482015268040dad2e6dac2e8c6d60bb1b6064820152608401610434565b6000835167ffffffffffffffff81111561081c5761081c6118d5565b604051908082528060200260200182016040528015610845578160200160208202803683370190505b50905060005b84518110156108bd5761089085828151811061086957610869611eb4565b602002602001015185838151811061088357610883611eb4565b60200260200101516103cd565b8282815181106108a2576108a2611eb4565b60209081029190910101526108b681611eca565b905061084b565b509392505050565b6109006040518060a00160405280600081526020016000815260200160006001600160a01b0316815260200160008152602001600081525090565b600561090d600184611ee5565b8154811061091d5761091d611eb4565b60009182526020918290206040805160a08101825260059093029091018054835260018101549383019390935260028301546001600160a01b03169082015260038201546060820152600490910154608082015292915050565b61097f610cdd565b6109896000610fad565b565b610993610cdd565b6000826001600160a01b03168260405160006040518083038185875af1925050503d80600081146109e0576040519150601f19603f3d011682016040523d82523d6000602084013e6109e5565b606091505b50509050806109f357600080fd5b505050565b610a03338383610fff565b5050565b600354600160a01b900460ff1615610a5b5760405162461bcd60e51b81526020600482015260176024820152764e46547320756e646572206d61696e74656e616e63652160481b6044820152606401610434565b610a77610a706003546001600160a01b031690565b83836110e0565b610a92338383604051806020016040528060008152506112e3565b60005b8251811015610b1b576000838281518110610ab257610ab2611eb4565b60200260200101519050610ad7610ad16003546001600160a01b031690565b826103cd565b6005610ae4600184611ee5565b81548110610af457610af4611eb4565b60009182526020909120600160059092020101555080610b1381611eca565b915050610a95565b50336001600160a01b03167f78a4d5d83d0dadc29ff373012ec001cf272f825f8ac0a40ccddf07ff51940582838342604051610b5993929190611efc565b60405180910390a25050565b610b6d610cdd565b60038054911515600160a01b0260ff60a01b19909216919091179055565b60606005805480602002602001604051908101604052809291908181526020016000905b82821015610c165760008481526020908190206040805160a08101825260058602909201805483526001808201548486015260028201546001600160a01b031692840192909252600381015460608401526004015460808301529083529092019101610baf565b50505050905090565b6001600160a01b038516331480610c3b5750610c3b853361035f565b610c575760405162461bcd60e51b815260040161043490611e66565b610794858585858561142e565b610c6c610cdd565b6001600160a01b038116610cd15760405162461bcd60e51b815260206004820152602660248201527f4f776e61626c653a206e6577206f776e657220697320746865207a65726f206160448201526564647265737360d01b6064820152608401610434565b610cda81610fad565b50565b6003546001600160a01b031633146109895760405162461bcd60e51b815260206004820181905260248201527f4f776e61626c653a2063616c6c6572206973206e6f7420746865206f776e65726044820152606401610434565b6001600160a01b038416610d5d5760405162461bcd60e51b815260040161043490611f32565b336000610d6985611558565b90506000610d7685611558565b90506000868152602081815260408083206001600160a01b038b16845290915281208054879290610da8908490611f73565b909155505060408051878152602081018790526001600160a01b03808a1692600092918716917fc3d58168c5ae7397731d063d5bbf3d657854427343f4c083240f7aacaa2d0f62910160405180910390a4610e08836000898989896115a3565b50505050505050565b8151835114610e325760405162461bcd60e51b815260040161043490611f8b565b6001600160a01b038416610e585760405162461bcd60e51b815260040161043490611fd3565b3360005b8451811015610f3f576000858281518110610e7957610e79611eb4565b602002602001015190506000858381518110610e9757610e97611eb4565b602090810291909101810151600084815280835260408082206001600160a01b038e168352909352919091205490915081811015610ee75760405162461bcd60e51b815260040161043490612018565b6000838152602081815260408083206001600160a01b038e8116855292528083208585039055908b16825281208054849290610f24908490611f73565b9250508190555050505080610f3890611eca565b9050610e5c565b50846001600160a01b0316866001600160a01b0316826001600160a01b03167f4a39dc06d4c0dbc64b70af90fd698a233a518aa5d07e595d983b8c0526c8f7fb8787604051610f8f929190612062565b60405180910390a4610fa58187878787876116ff565b505050505050565b600380546001600160a01b038381166001600160a01b0319831681179093556040519116919082907f8be0079c531659141344cd1fd0a4f28419497f9722a3daafe3b4186f6b6457e090600090a35050565b816001600160a01b0316836001600160a01b031614156110735760405162461bcd60e51b815260206004820152602960248201527f455243313135353a2073657474696e6720617070726f76616c20737461747573604482015268103337b91039b2b63360b91b6064820152608401610434565b6001600160a01b03838116600081815260016020908152604080832094871680845294825291829020805460ff191686151590811790915591519182527f17307eab39ab6107e8899845ad3d59bd9653f200f220920489ca2b5937696c31910160405180910390a3505050565b6001600160a01b0383166111425760405162461bcd60e51b815260206004820152602360248201527f455243313135353a206275726e2066726f6d20746865207a65726f206164647260448201526265737360e81b6064820152608401610434565b80518251146111635760405162461bcd60e51b815260040161043490611f8b565b604080516020810190915260009081905233905b835181101561127557600084828151811061119457611194611eb4565b6020026020010151905060008483815181106111b2576111b2611eb4565b602090810291909101810151600084815280835260408082206001600160a01b038c16835290935291909120549091508181101561123e5760405162461bcd60e51b8152602060048201526024808201527f455243313135353a206275726e20616d6f756e7420657863656564732062616c604482015263616e636560e01b6064820152608401610434565b6000928352602083815260408085206001600160a01b038b168652909152909220910390558061126d81611eca565b915050611177565b5060006001600160a01b0316846001600160a01b0316826001600160a01b03167f4a39dc06d4c0dbc64b70af90fd698a233a518aa5d07e595d983b8c0526c8f7fb86866040516112c6929190612062565b60405180910390a460408051602081019091526000905250505050565b6001600160a01b0384166113095760405162461bcd60e51b815260040161043490611f32565b815183511461132a5760405162461bcd60e51b815260040161043490611f8b565b3360005b84518110156113c65783818151811061134957611349611eb4565b602002602001015160008087848151811061136657611366611eb4565b602002602001015181526020019081526020016000206000886001600160a01b03166001600160a01b0316815260200190815260200160002060008282546113ae9190611f73565b909155508190506113be81611eca565b91505061132e565b50846001600160a01b031660006001600160a01b0316826001600160a01b03167f4a39dc06d4c0dbc64b70af90fd698a233a518aa5d07e595d983b8c0526c8f7fb8787604051611417929190612062565b60405180910390a4610794816000878787876116ff565b6001600160a01b0384166114545760405162461bcd60e51b815260040161043490611fd3565b33600061146085611558565b9050600061146d85611558565b90506000868152602081815260408083206001600160a01b038c168452909152902054858110156114b05760405162461bcd60e51b815260040161043490612018565b6000878152602081815260408083206001600160a01b038d8116855292528083208985039055908a168252812080548892906114ed908490611f73565b909155505060408051888152602081018890526001600160a01b03808b16928c821692918816917fc3d58168c5ae7397731d063d5bbf3d657854427343f4c083240f7aacaa2d0f62910160405180910390a461154d848a8a8a8a8a6115a3565b505050505050505050565b6040805160018082528183019092526060916000919060208083019080368337019050509050828160008151811061159257611592611eb4565b602090810291909101015292915050565b6001600160a01b0384163b15610fa55760405163f23a6e6160e01b81526001600160a01b0385169063f23a6e61906115e79089908990889088908890600401612090565b6020604051808303816000875af1925050508015611622575060408051601f3d908101601f1916820190925261161f918101906120d5565b60015b6116cf5761162e6120f2565b806308c379a01415611668575061164361210e565b8061164e575061166a565b8060405162461bcd60e51b815260040161043491906118a0565b505b60405162461bcd60e51b815260206004820152603460248201527f455243313135353a207472616e7366657220746f206e6f6e2d455243313135356044820152732932b1b2b4bb32b91034b6b83632b6b2b73a32b960611b6064820152608401610434565b6001600160e01b0319811663f23a6e6160e01b14610e085760405162461bcd60e51b815260040161043490612198565b6001600160a01b0384163b15610fa55760405163bc197c8160e01b81526001600160a01b0385169063bc197c819061174390899089908890889088906004016121e0565b6020604051808303816000875af192505050801561177e575060408051601f3d908101601f1916820190925261177b918101906120d5565b60015b61178a5761162e6120f2565b6001600160e01b0319811663bc197c8160e01b14610e085760405162461bcd60e51b815260040161043490612198565b80356001600160a01b03811681146117d157600080fd5b919050565b600080604083850312156117e957600080fd5b6117f2836117ba565b946020939093013593505050565b6001600160e01b031981168114610cda57600080fd5b60006020828403121561182857600080fd5b813561183381611800565b9392505050565b60006020828403121561184c57600080fd5b5035919050565b6000815180845260005b818110156118795760208185018101518683018201520161185d565b8181111561188b576000602083870101525b50601f01601f19169290920160200192915050565b6020815260006118336020830184611853565b600080604083850312156118c657600080fd5b50508035926020909101359150565b634e487b7160e01b600052604160045260246000fd5b601f8201601f1916810167ffffffffffffffff81118282101715611911576119116118d5565b6040525050565b600067ffffffffffffffff821115611932576119326118d5565b5060051b60200190565b600082601f83011261194d57600080fd5b8135602061195a82611918565b60405161196782826118eb565b83815260059390931b850182019282810191508684111561198757600080fd5b8286015b848110156119a2578035835291830191830161198b565b509695505050505050565b600082601f8301126119be57600080fd5b813567ffffffffffffffff8111156119d8576119d86118d5565b6040516119ef601f8301601f1916602001826118eb565b818152846020838601011115611a0457600080fd5b816020850160208301376000918101602001919091529392505050565b600080600080600060a08688031215611a3957600080fd5b611a42866117ba565b9450611a50602087016117ba565b9350604086013567ffffffffffffffff80821115611a6d57600080fd5b611a7989838a0161193c565b94506060880135915080821115611a8f57600080fd5b611a9b89838a0161193c565b93506080880135915080821115611ab157600080fd5b50611abe888289016119ad565b9150509295509295909350565b60008060408385031215611ade57600080fd5b823567ffffffffffffffff80821115611af657600080fd5b818501915085601f830112611b0a57600080fd5b81356020611b1782611918565b604051611b2482826118eb565b83815260059390931b8501820192828101915089841115611b4457600080fd5b948201945b83861015611b6957611b5a866117ba565b82529482019490820190611b49565b96505086013592505080821115611b7f57600080fd5b50611b8c8582860161193c565b9150509250929050565b600081518084526020808501945080840160005b83811015611bc657815187529582019590820190600101611baa565b509495945050505050565b6020815260006118336020830184611b96565b81518152602080830151908201526040808301516001600160a01b031690820152606080830151908201526080808301519082015260a08101610460565b803580151581146117d157600080fd5b60008060408385031215611c4557600080fd5b611c4e836117ba565b9150611c5c60208401611c22565b90509250929050565b60008060408385031215611c7857600080fd5b823567ffffffffffffffff80821115611c9057600080fd5b611c9c8683870161193c565b93506020850135915080821115611b7f57600080fd5b600060208284031215611cc457600080fd5b61183382611c22565b6020808252825182820181905260009190848201906040850190845b81811015611d4057611d2d83855180518252602080820151908301526040808201516001600160a01b03169083015260608082015190830152608090810151910152565b9284019260a09290920191600101611ce9565b50909695505050505050565b60008060408385031215611d5f57600080fd5b611d68836117ba565b9150611c5c602084016117ba565b600080600080600060a08688031215611d8e57600080fd5b611d97866117ba565b9450611da5602087016117ba565b93506040860135925060608601359150608086013567ffffffffffffffff811115611dcf57600080fd5b611abe888289016119ad565b600060208284031215611ded57600080fd5b611833826117ba565b600181811c90821680611e0a57607f821691505b60208210811415611e2b57634e487b7160e01b600052602260045260246000fd5b50919050565b634e487b7160e01b600052601160045260246000fd5b6000816000190483118215151615611e6157611e61611e31565b500290565b6020808252602e908201527f455243313135353a2063616c6c6572206973206e6f7420746f6b656e206f776e60408201526d195c881bdc88185c1c1c9bdd995960921b606082015260800190565b634e487b7160e01b600052603260045260246000fd5b6000600019821415611ede57611ede611e31565b5060010190565b600082821015611ef757611ef7611e31565b500390565b606081526000611f0f6060830186611b96565b8281036020840152611f218186611b96565b915050826040830152949350505050565b60208082526021908201527f455243313135353a206d696e7420746f20746865207a65726f206164647265736040820152607360f81b606082015260800190565b60008219821115611f8657611f86611e31565b500190565b60208082526028908201527f455243313135353a2069647320616e6420616d6f756e7473206c656e677468206040820152670dad2e6dac2e8c6d60c31b606082015260800190565b60208082526025908201527f455243313135353a207472616e7366657220746f20746865207a65726f206164604082015264647265737360d81b606082015260800190565b6020808252602a908201527f455243313135353a20696e73756666696369656e742062616c616e636520666f60408201526939103a3930b739b332b960b11b606082015260800190565b6040815260006120756040830185611b96565b82810360208401526120878185611b96565b95945050505050565b6001600160a01b03868116825285166020820152604081018490526060810183905260a0608082018190526000906120ca90830184611853565b979650505050505050565b6000602082840312156120e757600080fd5b815161183381611800565b600060033d111561210b5760046000803e5060005160e01c5b90565b600060443d101561211c5790565b6040516003193d81016004833e81513d67ffffffffffffffff816024840111818411171561214c57505050505090565b82850191508151818111156121645750505050505090565b843d870101602082850101111561217e5750505050505090565b61218d602082860101876118eb565b509095945050505050565b60208082526028908201527f455243313135353a204552433131353552656365697665722072656a656374656040820152676420746f6b656e7360c01b606082015260800190565b6001600160a01b0386811682528516602082015260a06040820181905260009061220c90830186611b96565b828103606084015261221e8186611b96565b905082810360808401526122328185611853565b9897505050505050505056fea2646970667358221220d1f557e9d5c28855784dfdc3f3ceae227c8da0e7e11426e30f0b9576f842506a64736f6c634300080b0033",
  "linkReferences": {},
  "deployedLinkReferences": {}
}