{
  "_format": "hh-sol-artifact-1",
  "contractName": "Contract",
  "sourceName": "contracts/Contract.sol",
  "abi": [
    {
      "inputs": [
        {
          "internalType": "string",
          "name": "_name",
          "type": "string"
        },
        {
          "internalType": "string",
          "name": "_symbol",
          "type": "string"
        },
        {
          "internalType": "string",
          "name": "_uri",
          "type": "string"
        }
      ],
      "stateMutability": "nonpayable",
      "type": "constructor"
    },
    {
      "anonymous": false,
      "inputs": [
        {
          "indexed": true,
          "internalType": "address",
          "name": "account",
          "type": "address"
        },
        {
          "indexed": true,
          "internalType": "address",
          "name": "operator",
          "type": "address"
        },
        {
          "indexed": false,
          "internalType": "bool",
          "name": "approved",
          "type": "bool"
        }
      ],
      "name": "ApprovalForAll",
      "type": "event"
    },
    {
      "anonymous": false,
      "inputs": [
        {
          "indexed": false,
          "internalType": "uint256",
          "name": "id",
          "type": "uint256"
        },
        {
          "indexed": false,
          "internalType": "uint256",
          "name": "amount",
          "type": "uint256"
        },
        {
          "indexed": true,
          "internalType": "address",
          "name": "to",
          "type": "address"
        },
        {
          "indexed": false,
          "internalType": "uint256",
          "name": "cost",
          "type": "uint256"
        },
        {
          "indexed": false,
          "internalType": "uint256",
          "name": "timestamp",
          "type": "uint256"
        }
      ],
      "name": "Minted",
      "type": "event"
    },
    {
      "anonymous": false,
      "inputs": [
        {
          "indexed": true,
          "internalType": "address",
          "name": "previousOwner",
          "type": "address"
        },
        {
          "indexed": true,
          "internalType": "address",
          "name": "newOwner",
          "type": "address"
        }
      ],
      "name": "OwnershipTransferred",
      "type": "event"
    },
    {
      "anonymous": false,
      "inputs": [
        {
          "indexed": false,
          "internalType": "uint256[]",
          "name": "ids",
          "type": "uint256[]"
        },
        {
          "indexed": false,
          "internalType": "uint256[]",
          "name": "amounts",
          "type": "uint256[]"
        },
        {
          "indexed": true,
          "internalType": "address",
          "name": "to",
          "type": "address"
        },
        {
          "indexed": false,
          "internalType": "uint256",
          "name": "timestamp",
          "type": "uint256"
        }
      ],
      "name": "Saled",
      "type": "event"
    },
    {
      "anonymous": false,
      "inputs": [
        {
          "indexed": true,
          "internalType": "address",
          "name": "operator",
          "type": "address"
        },
        {
          "indexed": true,
          "internalType": "address",
          "name": "from",
          "type": "address"
        },
        {
          "indexed": true,
          "internalType": "address",
          "name": "to",
          "type": "address"
        },
        {
          "indexed": false,
          "internalType": "uint256[]",
          "name": "ids",
          "type": "uint256[]"
        },
        {
          "indexed": false,
          "internalType": "uint256[]",
          "name": "values",
          "type": "uint256[]"
        }
      ],
      "name": "TransferBatch",
      "type": "event"
    },
    {
      "anonymous": false,
      "inputs": [
        {
          "indexed": true,
          "internalType": "address",
          "name": "operator",
          "type": "address"
        },
        {
          "indexed": true,
          "internalType": "address",
          "name": "from",
          "type": "address"
        },
        {
          "indexed": true,
          "internalType": "address",
          "name": "to",
          "type": "address"
        },
        {
          "indexed": false,
          "internalType": "uint256",
          "name": "id",
          "type": "uint256"
        },
        {
          "indexed": false,
          "internalType": "uint256",
          "name": "value",
          "type": "uint256"
        }
      ],
      "name": "TransferSingle",
      "type": "event"
    },
    {
      "anonymous": false,
      "inputs": [
        {
          "indexed": false,
          "internalType": "string",
          "name": "value",
          "type": "string"
        },
        {
          "indexed": true,
          "internalType": "uint256",
          "name": "id",
          "type": "uint256"
        }
      ],
      "name": "URI",
      "type": "event"
    },
    {
      "inputs": [
        {
          "internalType": "address",
          "name": "account",
          "type": "address"
        },
        {
          "internalType": "uint256",
          "name": "id",
          "type": "uint256"
        }
      ],
      "name": "balanceOf",
      "outputs": [
        {
          "internalType": "uint256",
          "name": "",
          "type": "uint256"
        }
      ],
      "stateMutability": "view",
      "type": "function"
    },
    {
      "inputs": [
        {
          "internalType": "address[]",
          "name": "accounts",
          "type": "address[]"
        },
        {
          "internalType": "uint256[]",
          "name": "ids",
          "type": "uint256[]"
        }
      ],
      "name": "balanceOfBatch",
      "outputs": [
        {
          "internalType": "uint256[]",
          "name": "",
          "type": "uint256[]"
        }
      ],
      "stateMutability": "view",
      "type": "function"
    },
    {
      "inputs": [
        {
          "internalType": "uint256[]",
          "name": "tokenIds",
          "type": "uint256[]"
        },
        {
          "internalType": "uint256[]",
          "name": "amounts",
          "type": "uint256[]"
        },
        {
          "internalType": "uint256",
          "name": "totalAcres",
          "type": "uint256"
        }
      ],
      "name": "buyFromServer",
      "outputs": [],
      "stateMutability": "payable",
      "type": "function"
    },
    {
      "inputs": [],
      "name": "deposit",
      "outputs": [],
      "stateMutability": "payable",
      "type": "function"
    },
    {
      "inputs": [],
      "name": "getAllNFTs",
      "outputs": [
        {
          "components": [
            {
              "internalType": "uint256",
              "name": "id",
              "type": "uint256"
            },
            {
              "internalType": "uint256",
              "name": "amount",
              "type": "uint256"
            },
            {
              "internalType": "address",
              "name": "owner",
              "type": "address"
            },
            {
              "internalType": "uint256",
              "name": "cost",
              "type": "uint256"
            },
            {
              "internalType": "uint256",
              "name": "timestamp",
              "type": "uint256"
            }
          ],
          "internalType": "struct Contract.SaleStruct[]",
          "name": "",
          "type": "tuple[]"
        }
      ],
      "stateMutability": "view",
      "type": "function"
    },
    {
      "inputs": [
        {
          "internalType": "uint256",
          "name": "tokenId",
          "type": "uint256"
        }
      ],
      "name": "getAnNFTs",
      "outputs": [
        {
          "components": [
            {
              "internalType": "uint256",
              "name": "id",
              "type": "uint256"
            },
            {
              "internalType": "uint256",
              "name": "amount",
              "type": "uint256"
            },
            {
              "internalType": "address",
              "name": "owner",
              "type": "address"
            },
            {
              "internalType": "uint256",
              "name": "cost",
              "type": "uint256"
            },
            {
              "internalType": "uint256",
              "name": "timestamp",
              "type": "uint256"
            }
          ],
          "internalType": "struct Contract.SaleStruct",
          "name": "",
          "type": "tuple"
        }
      ],
      "stateMutability": "view",
      "type": "function"
    },
    {
      "inputs": [
        {
          "internalType": "address",
          "name": "account",
          "type": "address"
        },
        {
          "internalType": "address",
          "name": "operator",
          "type": "address"
        }
      ],
      "name": "isApprovedForAll",
      "outputs": [
        {
          "internalType": "bool",
          "name": "",
          "type": "bool"
        }
      ],
      "stateMutability": "view",
      "type": "function"
    },
    {
      "inputs": [
        {
          "internalType": "uint256",
          "name": "nftType",
          "type": "uint256"
        },
        {
          "internalType": "uint256",
          "name": "amount",
          "type": "uint256"
        }
      ],
      "name": "mint",
      "outputs": [],
      "stateMutability": "nonpayable",
      "type": "function"
    },
    {
      "inputs": [],
      "name": "name",
      "outputs": [
        {
          "internalType": "string",
          "name": "",
          "type": "string"
        }
      ],
      "stateMutability": "view",
      "type": "function"
    },
    {
      "inputs": [],
      "name": "owner",
      "outputs": [
        {
          "internalType": "address",
          "name": "",
          "type": "address"
        }
      ],
      "stateMutability": "view",
      "type": "function"
    },
    {
      "inputs": [],
      "name": "paused",
      "outputs": [
        {
          "internalType": "bool",
          "name": "",
          "type": "bool"
        }
      ],
      "stateMutability": "view",
      "type": "function"
    },
    {
      "inputs": [
        {
          "internalType": "address",
          "name": "to",
          "type": "address"
        },
        {
          "internalType": "uint256",
          "name": "amount",
          "type": "uint256"
        }
      ],
      "name": "payTo",
      "outputs": [],
      "stateMutability": "nonpayable",
      "type": "function"
    },
    {
      "inputs": [],
      "name": "renounceOwnership",
      "outputs": [],
      "stateMutability": "nonpayable",
      "type": "function"
    },
    {
      "inputs": [
        {
          "internalType": "address",
          "name": "from",
          "type": "address"
        },
        {
          "internalType": "address",
          "name": "to",
          "type": "address"
        },
        {
          "internalType": "uint256[]",
          "name": "ids",
          "type": "uint256[]"
        },
        {
          "internalType": "uint256[]",
          "name": "amounts",
          "type": "uint256[]"
        },
        {
          "internalType": "bytes",
          "name": "data",
          "type": "bytes"
        }
      ],
      "name": "safeBatchTransferFrom",
      "outputs": [],
      "stateMutability": "nonpayable",
      "type": "function"
    },
    {
      "inputs": [
        {
          "internalType": "address",
          "name": "from",
          "type": "address"
        },
        {
          "internalType": "address",
          "name": "to",
          "type": "address"
        },
        {
          "internalType": "uint256",
          "name": "id",
          "type": "uint256"
        },
        {
          "internalType": "uint256",
          "name": "amount",
          "type": "uint256"
        },
        {
          "internalType": "bytes",
          "name": "data",
          "type": "bytes"
        }
      ],
      "name": "safeTransferFrom",
      "outputs": [],
      "stateMutability": "nonpayable",
      "type": "function"
    },
    {
      "inputs": [
        {
          "internalType": "address",
          "name": "operator",
          "type": "address"
        },
        {
          "internalType": "bool",
          "name": "approved",
          "type": "bool"
        }
      ],
      "name": "setApprovalForAll",
      "outputs": [],
      "stateMutability": "nonpayable",
      "type": "function"
    },
    {
      "inputs": [
        {
          "internalType": "bool",
          "name": "_state",
          "type": "bool"
        }
      ],
      "name": "setPause",
      "outputs": [],
      "stateMutability": "nonpayable",
      "type": "function"
    },
    {
      "inputs": [
        {
          "internalType": "bytes4",
          "name": "interfaceId",
          "type": "bytes4"
        }
      ],
      "name": "supportsInterface",
      "outputs": [
        {
          "internalType": "bool",
          "name": "",
          "type": "bool"
        }
      ],
      "stateMutability": "view",
      "type": "function"
    },
    {
      "inputs": [],
      "name": "symbol",
      "outputs": [
        {
          "internalType": "string",
          "name": "",
          "type": "string"
        }
      ],
      "stateMutability": "view",
      "type": "function"
    },
    {
      "inputs": [
        {
          "internalType": "address",
          "name": "newOwner",
          "type": "address"
        }
      ],
      "name": "transferOwnership",
      "outputs": [],
      "stateMutability": "nonpayable",
      "type": "function"
    },
    {
      "inputs": [
        {
          "internalType": "uint256",
          "name": "",
          "type": "uint256"
        }
      ],
      "name": "uri",
      "outputs": [
        {
          "internalType": "string",
          "name": "",
          "type": "string"
        }
      ],
      "stateMutability": "view",
      "type": "function"
    }
  ],
  "bytecode": "0x60806040526003805460ff60a01b191690556706f05b59d3b200006007553480156200002a57600080fd5b5060405162002887380380620028878339810160408190526200004d91620003eb565b8062000059816200020d565b50620000653362000226565b82516200007a90600590602086019062000278565b5081516200009090600690602085019062000278565b50506004602081905260017fabd6e7cb50984ff9c2f3e18a2660c3353dadf4e3291deeb275dae2cd1e44fe055560027f91da3fd0782e51c6b3986e9e672fd566868e71f3dbc2d6c2cd6fbb3e361af2a75560037f04cde762ef08b6b6c5ded8e8c4c0b3f4e5c9ad7342c88fcc93681b4588b73f05557f5c6b02db8b672415ffad906d7ccee10bd53dbad7d0b29e2bc0e50c93d5f3109355505060057ff7deed9399d719bf61dcb1322c056a03a885c275ab093673b0cc182b84bea0615560067feaa72e3626d79eea854e214b64a34b95d0c9348f5b8df0b074d774f7dba83c655560077f083fc81be30b6287dea23aa60f8ffaf268f507cdeac82ed9644e506b59c54ff05560087f0a56194ab293ddb0061a682f5e6edaea4986ae06e1ce58a7ee7f74df8d95443d5560097ffb8cf1d12598d1a039dd1d106665851a96aadf67d0d9ed76fceea282119208b7556103e8600052600a7f290f3bb17f303edd0f106ab04bdb0515d193106e8c2b48d993115d216da01cb155620004b9565b80516200022290600290602084019062000278565b5050565b600380546001600160a01b038381166001600160a01b0319831681179093556040519116919082907f8be0079c531659141344cd1fd0a4f28419497f9722a3daafe3b4186f6b6457e090600090a35050565b82805462000286906200047c565b90600052602060002090601f016020900481019282620002aa5760008555620002f5565b82601f10620002c557805160ff1916838001178555620002f5565b82800160010185558215620002f5579182015b82811115620002f5578251825591602001919060010190620002d8565b506200030392915062000307565b5090565b5b8082111562000303576000815560010162000308565b634e487b7160e01b600052604160045260246000fd5b600082601f8301126200034657600080fd5b81516001600160401b03808211156200036357620003636200031e565b604051601f8301601f19908116603f011681019082821181831017156200038e576200038e6200031e565b81604052838152602092508683858801011115620003ab57600080fd5b600091505b83821015620003cf5785820183015181830184015290820190620003b0565b83821115620003e15760008385830101525b9695505050505050565b6000806000606084860312156200040157600080fd5b83516001600160401b03808211156200041957600080fd5b620004278783880162000334565b945060208601519150808211156200043e57600080fd5b6200044c8783880162000334565b935060408601519150808211156200046357600080fd5b50620004728682870162000334565b9150509250925092565b600181811c908216806200049157607f821691505b60208210811415620004b357634e487b7160e01b600052602260045260246000fd5b50919050565b6123be80620004c96000396000f3fe6080604052600436106101295760003560e01c8063715018a6116100ab578063bedb86fb1161006f578063bedb86fb14610335578063d0e30db0146101f3578063e0391b0914610355578063e985e9c514610377578063f242432a146103c0578063f2fde38b146103e057600080fd5b8063715018a6146102a35780637bf08621146102b85780638da5cb5b146102d857806395d89b4114610300578063a22cb4651461031557600080fd5b80632eb2c2d6116100f25780632eb2c2d6146101f55780634e1273f41461021557806350323c08146102425780635c975abb1461025557806368ef9d3c1461027657600080fd5b8062fdd58e1461012e57806301ffc9a71461016157806306fdde03146101915780630e89341c146101b35780631b2ef1ca146101d3575b600080fd5b34801561013a57600080fd5b5061014e610149366004611900565b610400565b6040519081526020015b60405180910390f35b34801561016d57600080fd5b5061018161017c366004611940565b610499565b6040519015158152602001610158565b34801561019d57600080fd5b506101a66104e9565b60405161015891906119b1565b3480156101bf57600080fd5b506101a66101ce3660046119c4565b610577565b3480156101df57600080fd5b506101f36101ee3660046119dd565b61060b565b005b34801561020157600080fd5b506101f3610210366004611b4b565b61080e565b34801561022157600080fd5b50610235610230366004611bf5565b61085a565b6040516101589190611cfb565b6101f3610250366004611d0e565b610984565b34801561026157600080fd5b5060035461018190600160a01b900460ff1681565b34801561028257600080fd5b506102966102913660046119c4565b610b40565b6040516101589190611d7b565b3480156102af57600080fd5b506101f3610bf2565b3480156102c457600080fd5b506101f36102d3366004611900565b610c06565b3480156102e457600080fd5b506003546040516001600160a01b039091168152602001610158565b34801561030c57600080fd5b506101a6610c73565b34801561032157600080fd5b506101f3610330366004611dc9565b610c80565b34801561034157600080fd5b506101f3610350366004611dfc565b610c8f565b34801561036157600080fd5b5061036a610cb5565b6040516101589190611e17565b34801561038357600080fd5b50610181610392366004611e96565b6001600160a01b03918216600090815260016020908152604080832093909416825291909152205460ff1690565b3480156103cc57600080fd5b506101f36103db366004611ec0565b610d49565b3480156103ec57600080fd5b506101f36103fb366004611f25565b610d8e565b60006001600160a01b0383166104705760405162461bcd60e51b815260206004820152602a60248201527f455243313135353a2061646472657373207a65726f206973206e6f742061207660448201526930b634b21037bbb732b960b11b60648201526084015b60405180910390fd5b506000818152602081815260408083206001600160a01b03861684529091529020545b92915050565b60006001600160e01b03198216636cdb3d1360e11b14806104ca57506001600160e01b031982166303a24d0760e21b145b8061049357506301ffc9a760e01b6001600160e01b0319831614610493565b600580546104f690611f40565b80601f016020809104026020016040519081016040528092919081815260200182805461052290611f40565b801561056f5780601f106105445761010080835404028352916020019161056f565b820191906000526020600020905b81548152906001019060200180831161055257829003601f168201915b505050505081565b60606002805461058690611f40565b80601f01602080910402602001604051908101604052809291908181526020018280546105b290611f40565b80156105ff5780601f106105d4576101008083540402835291602001916105ff565b820191906000526020600020905b8154815290600101906020018083116105e257829003601f168201915b50505050509050919050565b610613610e07565b600354600160a01b900460ff16156106675760405162461bcd60e51b81526020600482015260176024820152764e46547320756e646572206d61696e74656e616e63652160481b6044820152606401610467565b600082815260046020908152604080832054815192830190915291815261069390339083908590610e61565b6000600754846106a39190611f91565b6040805160a08101825284815260208082018781523383850181815260608086018881524260808089018281526008805460018101825560009190915299517ff3f7a9fe364faab93b216da50a3214154f22a0a2b415b23a84c8169e8b636ee36005909b029a8b015596517ff3f7a9fe364faab93b216da50a3214154f22a0a2b415b23a84c8169e8b636ee48a015593517ff3f7a9fe364faab93b216da50a3214154f22a0a2b415b23a84c8169e8b636ee5890180546001600160a01b0319166001600160a01b0390921691909117905590517ff3f7a9fe364faab93b216da50a3214154f22a0a2b415b23a84c8169e8b636ee688015593517ff3f7a9fe364faab93b216da50a3214154f22a0a2b415b23a84c8169e8b636ee79096019590955585518981529384018a905294830186905292820152929350917fa6fab0f8def4cda731cc57e1237e5c4cdd5afc296a84c60accd4c7848f7bf21e910160405180910390a250505050565b6001600160a01b03851633148061082a575061082a8533610392565b6108465760405162461bcd60e51b815260040161046790611fb0565b6108538585858585610f3b565b5050505050565b606081518351146108bf5760405162461bcd60e51b815260206004820152602960248201527f455243313135353a206163636f756e747320616e6420696473206c656e677468604482015268040dad2e6dac2e8c6d60bb1b6064820152608401610467565b6000835167ffffffffffffffff8111156108db576108db6119ff565b604051908082528060200260200182016040528015610904578160200160208202803683370190505b50905060005b845181101561097c5761094f85828151811061092857610928611ffe565b602002602001015185838151811061094257610942611ffe565b6020026020010151610400565b82828151811061096157610961611ffe565b602090810291909101015261097581612014565b905061090a565b509392505050565b600354600160a01b900460ff16156109d85760405162461bcd60e51b81526020600482015260176024820152764e46547320756e646572206d61696e74656e616e63652160481b6044820152606401610467565b34600754826109e79190611f91565b1115610a355760405162461bcd60e51b815260206004820152601d60248201527f42757946726f6d5365727665723a204c6f772065746820616d6f756e740000006044820152606401610467565b610a51610a4a6003546001600160a01b031690565b84846110d7565b610a6c338484604051806020016040528060008152506112da565b60005b8351811015610af5576000848281518110610a8c57610a8c611ffe565b60200260200101519050610ab1610aab6003546001600160a01b031690565b82610400565b6008610abe60018461202f565b81548110610ace57610ace611ffe565b60009182526020909120600160059092020101555080610aed81612014565b915050610a6f565b50336001600160a01b03167f78a4d5d83d0dadc29ff373012ec001cf272f825f8ac0a40ccddf07ff51940582848442604051610b3393929190612046565b60405180910390a2505050565b610b7b6040518060a00160405280600081526020016000815260200160006001600160a01b0316815260200160008152602001600081525090565b6008610b8860018461202f565b81548110610b9857610b98611ffe565b60009182526020918290206040805160a08101825260059093029091018054835260018101549383019390935260028301546001600160a01b03169082015260038201546060820152600490910154608082015292915050565b610bfa610e07565b610c046000611425565b565b610c0e610e07565b6000826001600160a01b03168260405160006040518083038185875af1925050503d8060008114610c5b576040519150601f19603f3d011682016040523d82523d6000602084013e610c60565b606091505b5050905080610c6e57600080fd5b505050565b600680546104f690611f40565b610c8b338383611477565b5050565b610c97610e07565b60038054911515600160a01b0260ff60a01b19909216919091179055565b60606008805480602002602001604051908101604052809291908181526020016000905b82821015610d405760008481526020908190206040805160a08101825260058602909201805483526001808201548486015260028201546001600160a01b031692840192909252600381015460608401526004015460808301529083529092019101610cd9565b50505050905090565b6001600160a01b038516331480610d655750610d658533610392565b610d815760405162461bcd60e51b815260040161046790611fb0565b6108538585858585611558565b610d96610e07565b6001600160a01b038116610dfb5760405162461bcd60e51b815260206004820152602660248201527f4f776e61626c653a206e6577206f776e657220697320746865207a65726f206160448201526564647265737360d01b6064820152608401610467565b610e0481611425565b50565b6003546001600160a01b03163314610c045760405162461bcd60e51b815260206004820181905260248201527f4f776e61626c653a2063616c6c6572206973206e6f7420746865206f776e65726044820152606401610467565b6001600160a01b038416610e875760405162461bcd60e51b81526004016104679061207c565b336000610e9385611682565b90506000610ea085611682565b90506000868152602081815260408083206001600160a01b038b16845290915281208054879290610ed29084906120bd565b909155505060408051878152602081018790526001600160a01b03808a1692600092918716917fc3d58168c5ae7397731d063d5bbf3d657854427343f4c083240f7aacaa2d0f62910160405180910390a4610f32836000898989896116cd565b50505050505050565b8151835114610f5c5760405162461bcd60e51b8152600401610467906120d5565b6001600160a01b038416610f825760405162461bcd60e51b81526004016104679061211d565b3360005b8451811015611069576000858281518110610fa357610fa3611ffe565b602002602001015190506000858381518110610fc157610fc1611ffe565b602090810291909101810151600084815280835260408082206001600160a01b038e1683529093529190912054909150818110156110115760405162461bcd60e51b815260040161046790612162565b6000838152602081815260408083206001600160a01b038e8116855292528083208585039055908b1682528120805484929061104e9084906120bd565b925050819055505050508061106290612014565b9050610f86565b50846001600160a01b0316866001600160a01b0316826001600160a01b03167f4a39dc06d4c0dbc64b70af90fd698a233a518aa5d07e595d983b8c0526c8f7fb87876040516110b99291906121ac565b60405180910390a46110cf818787878787611829565b505050505050565b6001600160a01b0383166111395760405162461bcd60e51b815260206004820152602360248201527f455243313135353a206275726e2066726f6d20746865207a65726f206164647260448201526265737360e81b6064820152608401610467565b805182511461115a5760405162461bcd60e51b8152600401610467906120d5565b604080516020810190915260009081905233905b835181101561126c57600084828151811061118b5761118b611ffe565b6020026020010151905060008483815181106111a9576111a9611ffe565b602090810291909101810151600084815280835260408082206001600160a01b038c1683529093529190912054909150818110156112355760405162461bcd60e51b8152602060048201526024808201527f455243313135353a206275726e20616d6f756e7420657863656564732062616c604482015263616e636560e01b6064820152608401610467565b6000928352602083815260408085206001600160a01b038b168652909152909220910390558061126481612014565b91505061116e565b5060006001600160a01b0316846001600160a01b0316826001600160a01b03167f4a39dc06d4c0dbc64b70af90fd698a233a518aa5d07e595d983b8c0526c8f7fb86866040516112bd9291906121ac565b60405180910390a460408051602081019091526000905250505050565b6001600160a01b0384166113005760405162461bcd60e51b81526004016104679061207c565b81518351146113215760405162461bcd60e51b8152600401610467906120d5565b3360005b84518110156113bd5783818151811061134057611340611ffe565b602002602001015160008087848151811061135d5761135d611ffe565b602002602001015181526020019081526020016000206000886001600160a01b03166001600160a01b0316815260200190815260200160002060008282546113a591906120bd565b909155508190506113b581612014565b915050611325565b50846001600160a01b031660006001600160a01b0316826001600160a01b03167f4a39dc06d4c0dbc64b70af90fd698a233a518aa5d07e595d983b8c0526c8f7fb878760405161140e9291906121ac565b60405180910390a461085381600087878787611829565b600380546001600160a01b038381166001600160a01b0319831681179093556040519116919082907f8be0079c531659141344cd1fd0a4f28419497f9722a3daafe3b4186f6b6457e090600090a35050565b816001600160a01b0316836001600160a01b031614156114eb5760405162461bcd60e51b815260206004820152602960248201527f455243313135353a2073657474696e6720617070726f76616c20737461747573604482015268103337b91039b2b63360b91b6064820152608401610467565b6001600160a01b03838116600081815260016020908152604080832094871680845294825291829020805460ff191686151590811790915591519182527f17307eab39ab6107e8899845ad3d59bd9653f200f220920489ca2b5937696c31910160405180910390a3505050565b6001600160a01b03841661157e5760405162461bcd60e51b81526004016104679061211d565b33600061158a85611682565b9050600061159785611682565b90506000868152602081815260408083206001600160a01b038c168452909152902054858110156115da5760405162461bcd60e51b815260040161046790612162565b6000878152602081815260408083206001600160a01b038d8116855292528083208985039055908a168252812080548892906116179084906120bd565b909155505060408051888152602081018890526001600160a01b03808b16928c821692918816917fc3d58168c5ae7397731d063d5bbf3d657854427343f4c083240f7aacaa2d0f62910160405180910390a4611677848a8a8a8a8a6116cd565b505050505050505050565b604080516001808252818301909252606091600091906020808301908036833701905050905082816000815181106116bc576116bc611ffe565b602090810291909101015292915050565b6001600160a01b0384163b156110cf5760405163f23a6e6160e01b81526001600160a01b0385169063f23a6e619061171190899089908890889088906004016121da565b6020604051808303816000875af192505050801561174c575060408051601f3d908101601f191682019092526117499181019061221f565b60015b6117f95761175861223c565b806308c379a01415611792575061176d612258565b806117785750611794565b8060405162461bcd60e51b815260040161046791906119b1565b505b60405162461bcd60e51b815260206004820152603460248201527f455243313135353a207472616e7366657220746f206e6f6e2d455243313135356044820152732932b1b2b4bb32b91034b6b83632b6b2b73a32b960611b6064820152608401610467565b6001600160e01b0319811663f23a6e6160e01b14610f325760405162461bcd60e51b8152600401610467906122e2565b6001600160a01b0384163b156110cf5760405163bc197c8160e01b81526001600160a01b0385169063bc197c819061186d908990899088908890889060040161232a565b6020604051808303816000875af19250505080156118a8575060408051601f3d908101601f191682019092526118a59181019061221f565b60015b6118b45761175861223c565b6001600160e01b0319811663bc197c8160e01b14610f325760405162461bcd60e51b8152600401610467906122e2565b80356001600160a01b03811681146118fb57600080fd5b919050565b6000806040838503121561191357600080fd5b61191c836118e4565b946020939093013593505050565b6001600160e01b031981168114610e0457600080fd5b60006020828403121561195257600080fd5b813561195d8161192a565b9392505050565b6000815180845260005b8181101561198a5760208185018101518683018201520161196e565b8181111561199c576000602083870101525b50601f01601f19169290920160200192915050565b60208152600061195d6020830184611964565b6000602082840312156119d657600080fd5b5035919050565b600080604083850312156119f057600080fd5b50508035926020909101359150565b634e487b7160e01b600052604160045260246000fd5b601f8201601f1916810167ffffffffffffffff81118282101715611a3b57611a3b6119ff565b6040525050565b600067ffffffffffffffff821115611a5c57611a5c6119ff565b5060051b60200190565b600082601f830112611a7757600080fd5b81356020611a8482611a42565b604051611a918282611a15565b83815260059390931b8501820192828101915086841115611ab157600080fd5b8286015b84811015611acc5780358352918301918301611ab5565b509695505050505050565b600082601f830112611ae857600080fd5b813567ffffffffffffffff811115611b0257611b026119ff565b604051611b19601f8301601f191660200182611a15565b818152846020838601011115611b2e57600080fd5b816020850160208301376000918101602001919091529392505050565b600080600080600060a08688031215611b6357600080fd5b611b6c866118e4565b9450611b7a602087016118e4565b9350604086013567ffffffffffffffff80821115611b9757600080fd5b611ba389838a01611a66565b94506060880135915080821115611bb957600080fd5b611bc589838a01611a66565b93506080880135915080821115611bdb57600080fd5b50611be888828901611ad7565b9150509295509295909350565b60008060408385031215611c0857600080fd5b823567ffffffffffffffff80821115611c2057600080fd5b818501915085601f830112611c3457600080fd5b81356020611c4182611a42565b604051611c4e8282611a15565b83815260059390931b8501820192828101915089841115611c6e57600080fd5b948201945b83861015611c9357611c84866118e4565b82529482019490820190611c73565b96505086013592505080821115611ca957600080fd5b50611cb685828601611a66565b9150509250929050565b600081518084526020808501945080840160005b83811015611cf057815187529582019590820190600101611cd4565b509495945050505050565b60208152600061195d6020830184611cc0565b600080600060608486031215611d2357600080fd5b833567ffffffffffffffff80821115611d3b57600080fd5b611d4787838801611a66565b94506020860135915080821115611d5d57600080fd5b50611d6a86828701611a66565b925050604084013590509250925092565b81518152602080830151908201526040808301516001600160a01b031690820152606080830151908201526080808301519082015260a08101610493565b803580151581146118fb57600080fd5b60008060408385031215611ddc57600080fd5b611de5836118e4565b9150611df360208401611db9565b90509250929050565b600060208284031215611e0e57600080fd5b61195d82611db9565b6020808252825182820181905260009190848201906040850190845b81811015611e8a57611e7783855180518252602080820151908301526040808201516001600160a01b03169083015260608082015190830152608090810151910152565b9284019260a09290920191600101611e33565b50909695505050505050565b60008060408385031215611ea957600080fd5b611eb2836118e4565b9150611df3602084016118e4565b600080600080600060a08688031215611ed857600080fd5b611ee1866118e4565b9450611eef602087016118e4565b93506040860135925060608601359150608086013567ffffffffffffffff811115611f1957600080fd5b611be888828901611ad7565b600060208284031215611f3757600080fd5b61195d826118e4565b600181811c90821680611f5457607f821691505b60208210811415611f7557634e487b7160e01b600052602260045260246000fd5b50919050565b634e487b7160e01b600052601160045260246000fd5b6000816000190483118215151615611fab57611fab611f7b565b500290565b6020808252602e908201527f455243313135353a2063616c6c6572206973206e6f7420746f6b656e206f776e60408201526d195c881bdc88185c1c1c9bdd995960921b606082015260800190565b634e487b7160e01b600052603260045260246000fd5b600060001982141561202857612028611f7b565b5060010190565b60008282101561204157612041611f7b565b500390565b6060815260006120596060830186611cc0565b828103602084015261206b8186611cc0565b915050826040830152949350505050565b60208082526021908201527f455243313135353a206d696e7420746f20746865207a65726f206164647265736040820152607360f81b606082015260800190565b600082198211156120d0576120d0611f7b565b500190565b60208082526028908201527f455243313135353a2069647320616e6420616d6f756e7473206c656e677468206040820152670dad2e6dac2e8c6d60c31b606082015260800190565b60208082526025908201527f455243313135353a207472616e7366657220746f20746865207a65726f206164604082015264647265737360d81b606082015260800190565b6020808252602a908201527f455243313135353a20696e73756666696369656e742062616c616e636520666f60408201526939103a3930b739b332b960b11b606082015260800190565b6040815260006121bf6040830185611cc0565b82810360208401526121d18185611cc0565b95945050505050565b6001600160a01b03868116825285166020820152604081018490526060810183905260a06080820181905260009061221490830184611964565b979650505050505050565b60006020828403121561223157600080fd5b815161195d8161192a565b600060033d11156122555760046000803e5060005160e01c5b90565b600060443d10156122665790565b6040516003193d81016004833e81513d67ffffffffffffffff816024840111818411171561229657505050505090565b82850191508151818111156122ae5750505050505090565b843d87010160208285010111156122c85750505050505090565b6122d760208286010187611a15565b509095945050505050565b60208082526028908201527f455243313135353a204552433131353552656365697665722072656a656374656040820152676420746f6b656e7360c01b606082015260800190565b6001600160a01b0386811682528516602082015260a06040820181905260009061235690830186611cc0565b82810360608401526123688186611cc0565b9050828103608084015261237c8185611964565b9897505050505050505056fea264697066735822122039ec9361870208bd3feb908c53cc99358f21b3a271de5c95fc97e6276b10564364736f6c634300080b0033",
  "linkReferences": {},
  "deployedLinkReferences": {}
}