{
  "_format": "hh-sol-artifact-1",
  "contractName": "Contract",
  "sourceName": "contracts/Contract.sol",
  "abi": [
    {
      "inputs": [
        {
          "internalType": "string",
          "name": "_uri",
          "type": "string"
        }
      ],
      "stateMutability": "nonpayable",
      "type": "constructor"
    },
    {
      "anonymous": false,
      "inputs": [
        {
          "indexed": true,
          "internalType": "address",
          "name": "account",
          "type": "address"
        },
        {
          "indexed": true,
          "internalType": "address",
          "name": "operator",
          "type": "address"
        },
        {
          "indexed": false,
          "internalType": "bool",
          "name": "approved",
          "type": "bool"
        }
      ],
      "name": "ApprovalForAll",
      "type": "event"
    },
    {
      "anonymous": false,
      "inputs": [
        {
          "indexed": false,
          "internalType": "uint256",
          "name": "id",
          "type": "uint256"
        },
        {
          "indexed": false,
          "internalType": "uint256",
          "name": "amount",
          "type": "uint256"
        },
        {
          "indexed": true,
          "internalType": "address",
          "name": "to",
          "type": "address"
        },
        {
          "indexed": false,
          "internalType": "uint256",
          "name": "cost",
          "type": "uint256"
        },
        {
          "indexed": false,
          "internalType": "uint256",
          "name": "timestamp",
          "type": "uint256"
        }
      ],
      "name": "Minted",
      "type": "event"
    },
    {
      "anonymous": false,
      "inputs": [
        {
          "indexed": true,
          "internalType": "address",
          "name": "previousOwner",
          "type": "address"
        },
        {
          "indexed": true,
          "internalType": "address",
          "name": "newOwner",
          "type": "address"
        }
      ],
      "name": "OwnershipTransferred",
      "type": "event"
    },
    {
      "anonymous": false,
      "inputs": [
        {
          "indexed": true,
          "internalType": "address",
          "name": "operator",
          "type": "address"
        },
        {
          "indexed": true,
          "internalType": "address",
          "name": "from",
          "type": "address"
        },
        {
          "indexed": true,
          "internalType": "address",
          "name": "to",
          "type": "address"
        },
        {
          "indexed": false,
          "internalType": "uint256[]",
          "name": "ids",
          "type": "uint256[]"
        },
        {
          "indexed": false,
          "internalType": "uint256[]",
          "name": "values",
          "type": "uint256[]"
        }
      ],
      "name": "TransferBatch",
      "type": "event"
    },
    {
      "anonymous": false,
      "inputs": [
        {
          "indexed": true,
          "internalType": "address",
          "name": "operator",
          "type": "address"
        },
        {
          "indexed": true,
          "internalType": "address",
          "name": "from",
          "type": "address"
        },
        {
          "indexed": true,
          "internalType": "address",
          "name": "to",
          "type": "address"
        },
        {
          "indexed": false,
          "internalType": "uint256",
          "name": "id",
          "type": "uint256"
        },
        {
          "indexed": false,
          "internalType": "uint256",
          "name": "value",
          "type": "uint256"
        }
      ],
      "name": "TransferSingle",
      "type": "event"
    },
    {
      "anonymous": false,
      "inputs": [
        {
          "indexed": false,
          "internalType": "string",
          "name": "value",
          "type": "string"
        },
        {
          "indexed": true,
          "internalType": "uint256",
          "name": "id",
          "type": "uint256"
        }
      ],
      "name": "URI",
      "type": "event"
    },
    {
      "inputs": [
        {
          "internalType": "address",
          "name": "account",
          "type": "address"
        },
        {
          "internalType": "uint256",
          "name": "id",
          "type": "uint256"
        }
      ],
      "name": "balanceOf",
      "outputs": [
        {
          "internalType": "uint256",
          "name": "",
          "type": "uint256"
        }
      ],
      "stateMutability": "view",
      "type": "function"
    },
    {
      "inputs": [
        {
          "internalType": "address[]",
          "name": "accounts",
          "type": "address[]"
        },
        {
          "internalType": "uint256[]",
          "name": "ids",
          "type": "uint256[]"
        }
      ],
      "name": "balanceOfBatch",
      "outputs": [
        {
          "internalType": "uint256[]",
          "name": "",
          "type": "uint256[]"
        }
      ],
      "stateMutability": "view",
      "type": "function"
    },
    {
      "inputs": [
        {
          "internalType": "uint256[]",
          "name": "tokenIds",
          "type": "uint256[]"
        },
        {
          "internalType": "uint256[]",
          "name": "amounts",
          "type": "uint256[]"
        }
      ],
      "name": "buyFromServer",
      "outputs": [],
      "stateMutability": "nonpayable",
      "type": "function"
    },
    {
      "inputs": [],
      "name": "deposit",
      "outputs": [],
      "stateMutability": "payable",
      "type": "function"
    },
    {
      "inputs": [],
      "name": "getAllNFTs",
      "outputs": [
        {
          "components": [
            {
              "internalType": "uint256",
              "name": "id",
              "type": "uint256"
            },
            {
              "internalType": "uint256",
              "name": "amount",
              "type": "uint256"
            },
            {
              "internalType": "address",
              "name": "owner",
              "type": "address"
            },
            {
              "internalType": "uint256",
              "name": "cost",
              "type": "uint256"
            },
            {
              "internalType": "uint256",
              "name": "timestamp",
              "type": "uint256"
            }
          ],
          "internalType": "struct Contract.SaleStruct[]",
          "name": "",
          "type": "tuple[]"
        }
      ],
      "stateMutability": "view",
      "type": "function"
    },
    {
      "inputs": [
        {
          "internalType": "uint256",
          "name": "tokenId",
          "type": "uint256"
        }
      ],
      "name": "getAnNFTs",
      "outputs": [
        {
          "components": [
            {
              "internalType": "uint256",
              "name": "id",
              "type": "uint256"
            },
            {
              "internalType": "uint256",
              "name": "amount",
              "type": "uint256"
            },
            {
              "internalType": "address",
              "name": "owner",
              "type": "address"
            },
            {
              "internalType": "uint256",
              "name": "cost",
              "type": "uint256"
            },
            {
              "internalType": "uint256",
              "name": "timestamp",
              "type": "uint256"
            }
          ],
          "internalType": "struct Contract.SaleStruct",
          "name": "",
          "type": "tuple"
        }
      ],
      "stateMutability": "view",
      "type": "function"
    },
    {
      "inputs": [
        {
          "internalType": "address",
          "name": "account",
          "type": "address"
        },
        {
          "internalType": "address",
          "name": "operator",
          "type": "address"
        }
      ],
      "name": "isApprovedForAll",
      "outputs": [
        {
          "internalType": "bool",
          "name": "",
          "type": "bool"
        }
      ],
      "stateMutability": "view",
      "type": "function"
    },
    {
      "inputs": [
        {
          "internalType": "uint256",
          "name": "nftType",
          "type": "uint256"
        },
        {
          "internalType": "uint256",
          "name": "amount",
          "type": "uint256"
        }
      ],
      "name": "mint",
      "outputs": [],
      "stateMutability": "nonpayable",
      "type": "function"
    },
    {
      "inputs": [],
      "name": "owner",
      "outputs": [
        {
          "internalType": "address",
          "name": "",
          "type": "address"
        }
      ],
      "stateMutability": "view",
      "type": "function"
    },
    {
      "inputs": [],
      "name": "paused",
      "outputs": [
        {
          "internalType": "bool",
          "name": "",
          "type": "bool"
        }
      ],
      "stateMutability": "view",
      "type": "function"
    },
    {
      "inputs": [
        {
          "internalType": "address",
          "name": "to",
          "type": "address"
        },
        {
          "internalType": "uint256",
          "name": "amount",
          "type": "uint256"
        }
      ],
      "name": "payTo",
      "outputs": [],
      "stateMutability": "nonpayable",
      "type": "function"
    },
    {
      "inputs": [],
      "name": "renounceOwnership",
      "outputs": [],
      "stateMutability": "nonpayable",
      "type": "function"
    },
    {
      "inputs": [
        {
          "internalType": "address",
          "name": "from",
          "type": "address"
        },
        {
          "internalType": "address",
          "name": "to",
          "type": "address"
        },
        {
          "internalType": "uint256[]",
          "name": "ids",
          "type": "uint256[]"
        },
        {
          "internalType": "uint256[]",
          "name": "amounts",
          "type": "uint256[]"
        },
        {
          "internalType": "bytes",
          "name": "data",
          "type": "bytes"
        }
      ],
      "name": "safeBatchTransferFrom",
      "outputs": [],
      "stateMutability": "nonpayable",
      "type": "function"
    },
    {
      "inputs": [
        {
          "internalType": "address",
          "name": "from",
          "type": "address"
        },
        {
          "internalType": "address",
          "name": "to",
          "type": "address"
        },
        {
          "internalType": "uint256",
          "name": "id",
          "type": "uint256"
        },
        {
          "internalType": "uint256",
          "name": "amount",
          "type": "uint256"
        },
        {
          "internalType": "bytes",
          "name": "data",
          "type": "bytes"
        }
      ],
      "name": "safeTransferFrom",
      "outputs": [],
      "stateMutability": "nonpayable",
      "type": "function"
    },
    {
      "inputs": [
        {
          "internalType": "address",
          "name": "operator",
          "type": "address"
        },
        {
          "internalType": "bool",
          "name": "approved",
          "type": "bool"
        }
      ],
      "name": "setApprovalForAll",
      "outputs": [],
      "stateMutability": "nonpayable",
      "type": "function"
    },
    {
      "inputs": [
        {
          "internalType": "bool",
          "name": "_state",
          "type": "bool"
        }
      ],
      "name": "setPause",
      "outputs": [],
      "stateMutability": "nonpayable",
      "type": "function"
    },
    {
      "inputs": [
        {
          "internalType": "bytes4",
          "name": "interfaceId",
          "type": "bytes4"
        }
      ],
      "name": "supportsInterface",
      "outputs": [
        {
          "internalType": "bool",
          "name": "",
          "type": "bool"
        }
      ],
      "stateMutability": "view",
      "type": "function"
    },
    {
      "inputs": [
        {
          "internalType": "address",
          "name": "newOwner",
          "type": "address"
        }
      ],
      "name": "transferOwnership",
      "outputs": [],
      "stateMutability": "nonpayable",
      "type": "function"
    },
    {
      "inputs": [
        {
          "internalType": "uint256",
          "name": "",
          "type": "uint256"
        }
      ],
      "name": "uri",
      "outputs": [
        {
          "internalType": "string",
          "name": "",
          "type": "string"
        }
      ],
      "stateMutability": "view",
      "type": "function"
    }
  ],
  "bytecode": "0x60806040526003805460ff60a01b191690553480156200001e57600080fd5b50604051620025cd380380620025cd8339810160408190526200004191620002b1565b806200004d816200018a565b506200005933620001a3565b506004602081905260017fabd6e7cb50984ff9c2f3e18a2660c3353dadf4e3291deeb275dae2cd1e44fe055560027f91da3fd0782e51c6b3986e9e672fd566868e71f3dbc2d6c2cd6fbb3e361af2a75560037f04cde762ef08b6b6c5ded8e8c4c0b3f4e5c9ad7342c88fcc93681b4588b73f05557f5c6b02db8b672415ffad906d7ccee10bd53dbad7d0b29e2bc0e50c93d5f310935560057ff7deed9399d719bf61dcb1322c056a03a885c275ab093673b0cc182b84bea0615560067feaa72e3626d79eea854e214b64a34b95d0c9348f5b8df0b074d774f7dba83c655560077f083fc81be30b6287dea23aa60f8ffaf268f507cdeac82ed9644e506b59c54ff05560c860005260087f0a56194ab293ddb0061a682f5e6edaea4986ae06e1ce58a7ee7f74df8d95443d55620003ca565b80516200019f906002906020840190620001f5565b5050565b600380546001600160a01b038381166001600160a01b0319831681179093556040519116919082907f8be0079c531659141344cd1fd0a4f28419497f9722a3daafe3b4186f6b6457e090600090a35050565b82805462000203906200038d565b90600052602060002090601f01602090048101928262000227576000855562000272565b82601f106200024257805160ff191683800117855562000272565b8280016001018555821562000272579182015b828111156200027257825182559160200191906001019062000255565b506200028092915062000284565b5090565b5b8082111562000280576000815560010162000285565b634e487b7160e01b600052604160045260246000fd5b60006020808385031215620002c557600080fd5b82516001600160401b0380821115620002dd57600080fd5b818501915085601f830112620002f257600080fd5b8151818111156200030757620003076200029b565b604051601f8201601f19908116603f011681019083821181831017156200033257620003326200029b565b8160405282815288868487010111156200034b57600080fd5b600093505b828410156200036f578484018601518185018701529285019262000350565b82841115620003815760008684830101525b98975050505050505050565b600181811c90821680620003a257607f821691505b60208210811415620003c457634e487b7160e01b600052602260045260246000fd5b50919050565b6121f380620003da6000396000f3fe6080604052600436106101135760003560e01c80637bf08621116100a0578063d0e30db011610064578063d0e30db0146101c8578063e0391b0914610322578063e985e9c514610344578063f242432a1461038d578063f2fde38b146103ad57600080fd5b80637bf086211461027a5780638da5cb5b1461029a578063a22cb465146102c2578063b1f6e53f146102e2578063bedb86fb1461030257600080fd5b80632eb2c2d6116100e75780632eb2c2d6146101ca5780634e1273f4146101ea5780635c975abb1461021757806368ef9d3c14610238578063715018a61461026557600080fd5b8062fdd58e1461011857806301ffc9a71461014b5780630e89341c1461017b5780631b2ef1ca146101a8575b600080fd5b34801561012457600080fd5b5061013861013336600461178b565b6103cd565b6040519081526020015b60405180910390f35b34801561015757600080fd5b5061016b6101663660046117cb565b610466565b6040519015158152602001610142565b34801561018757600080fd5b5061019b6101963660046117ef565b6104b6565b6040516101429190611855565b3480156101b457600080fd5b506101c86101c3366004611868565b61054a565b005b3480156101d657600080fd5b506101c86101e53660046119d6565b61074e565b3480156101f657600080fd5b5061020a610205366004611a80565b61079a565b6040516101429190611b86565b34801561022357600080fd5b5060035461016b90600160a01b900460ff1681565b34801561024457600080fd5b506102586102533660046117ef565b6108c4565b6040516101429190611b99565b34801561027157600080fd5b506101c8610976565b34801561028657600080fd5b506101c861029536600461178b565b61098a565b3480156102a657600080fd5b506003546040516001600160a01b039091168152602001610142565b3480156102ce57600080fd5b506101c86102dd366004611be7565b6109f7565b3480156102ee57600080fd5b506101c86102fd366004611c1a565b610a06565b34801561030e57600080fd5b506101c861031d366004611c67565b610b1a565b34801561032e57600080fd5b50610337610b40565b6040516101429190611c82565b34801561035057600080fd5b5061016b61035f366004611d01565b6001600160a01b03918216600090815260016020908152604080832093909416825291909152205460ff1690565b34801561039957600080fd5b506101c86103a8366004611d2b565b610bd4565b3480156103b957600080fd5b506101c86103c8366004611d90565b610c19565b60006001600160a01b03831661043d5760405162461bcd60e51b815260206004820152602a60248201527f455243313135353a2061646472657373207a65726f206973206e6f742061207660448201526930b634b21037bbb732b960b11b60648201526084015b60405180910390fd5b506000818152602081815260408083206001600160a01b03861684529091529020545b92915050565b60006001600160e01b03198216636cdb3d1360e11b148061049757506001600160e01b031982166303a24d0760e21b145b8061046057506301ffc9a760e01b6001600160e01b0319831614610460565b6060600280546104c590611dab565b80601f01602080910402602001604051908101604052809291908181526020018280546104f190611dab565b801561053e5780601f106105135761010080835404028352916020019161053e565b820191906000526020600020905b81548152906001019060200180831161052157829003601f168201915b50505050509050919050565b610552610c92565b600354600160a01b900460ff16156105a65760405162461bcd60e51b81526020600482015260176024820152764e46547320756e646572206d61696e74656e616e63652160481b6044820152606401610434565b60008281526004602090815260408083205481519283019091529181526105d290339083908590610cec565b60006105e584662386f26fc10000611dfc565b6040805160a08101825284815260208082018781523383850181815260608086018881524260808089018281526005805460018101825560008290529a517f036b6384b5eca791c62761152d0c79bb0604c104a5fb6f4eb0703f3154bb3db09b9091029a8b015596517f036b6384b5eca791c62761152d0c79bb0604c104a5fb6f4eb0703f3154bb3db18a015593517f036b6384b5eca791c62761152d0c79bb0604c104a5fb6f4eb0703f3154bb3db2890180546001600160a01b0319166001600160a01b0390921691909117905590517f036b6384b5eca791c62761152d0c79bb0604c104a5fb6f4eb0703f3154bb3db388015593517f036b6384b5eca791c62761152d0c79bb0604c104a5fb6f4eb0703f3154bb3db49096019590955585518981529384018a905294830186905292820152929350917fa6fab0f8def4cda731cc57e1237e5c4cdd5afc296a84c60accd4c7848f7bf21e910160405180910390a250505050565b6001600160a01b03851633148061076a575061076a853361035f565b6107865760405162461bcd60e51b815260040161043490611e1b565b6107938585858585610dc6565b5050505050565b606081518351146107ff5760405162461bcd60e51b815260206004820152602960248201527f455243313135353a206163636f756e747320616e6420696473206c656e677468604482015268040dad2e6dac2e8c6d60bb1b6064820152608401610434565b6000835167ffffffffffffffff81111561081b5761081b61188a565b604051908082528060200260200182016040528015610844578160200160208202803683370190505b50905060005b84518110156108bc5761088f85828151811061086857610868611e69565b602002602001015185838151811061088257610882611e69565b60200260200101516103cd565b8282815181106108a1576108a1611e69565b60209081029190910101526108b581611e7f565b905061084a565b509392505050565b6108ff6040518060a00160405280600081526020016000815260200160006001600160a01b0316815260200160008152602001600081525090565b600561090c600184611e9a565b8154811061091c5761091c611e69565b60009182526020918290206040805160a08101825260059093029091018054835260018101549383019390935260028301546001600160a01b03169082015260038201546060820152600490910154608082015292915050565b61097e610c92565b6109886000610f62565b565b610992610c92565b6000826001600160a01b03168260405160006040518083038185875af1925050503d80600081146109df576040519150601f19603f3d011682016040523d82523d6000602084013e6109e4565b606091505b50509050806109f257600080fd5b505050565b610a02338383610fb4565b5050565b600354600160a01b900460ff1615610a5a5760405162461bcd60e51b81526020600482015260176024820152764e46547320756e646572206d61696e74656e616e63652160481b6044820152606401610434565b610a76610a6f6003546001600160a01b031690565b8383611095565b610a9133838360405180602001604052806000815250611298565b60005b82518110156109f2576000838281518110610ab157610ab1611e69565b60200260200101519050610ad6610ad06003546001600160a01b031690565b826103cd565b6005610ae3600184611e9a565b81548110610af357610af3611e69565b60009182526020909120600160059092020101555080610b1281611e7f565b915050610a94565b610b22610c92565b60038054911515600160a01b0260ff60a01b19909216919091179055565b60606005805480602002602001604051908101604052809291908181526020016000905b82821015610bcb5760008481526020908190206040805160a08101825260058602909201805483526001808201548486015260028201546001600160a01b031692840192909252600381015460608401526004015460808301529083529092019101610b64565b50505050905090565b6001600160a01b038516331480610bf05750610bf0853361035f565b610c0c5760405162461bcd60e51b815260040161043490611e1b565b61079385858585856113e3565b610c21610c92565b6001600160a01b038116610c865760405162461bcd60e51b815260206004820152602660248201527f4f776e61626c653a206e6577206f776e657220697320746865207a65726f206160448201526564647265737360d01b6064820152608401610434565b610c8f81610f62565b50565b6003546001600160a01b031633146109885760405162461bcd60e51b815260206004820181905260248201527f4f776e61626c653a2063616c6c6572206973206e6f7420746865206f776e65726044820152606401610434565b6001600160a01b038416610d125760405162461bcd60e51b815260040161043490611eb1565b336000610d1e8561150d565b90506000610d2b8561150d565b90506000868152602081815260408083206001600160a01b038b16845290915281208054879290610d5d908490611ef2565b909155505060408051878152602081018790526001600160a01b03808a1692600092918716917fc3d58168c5ae7397731d063d5bbf3d657854427343f4c083240f7aacaa2d0f62910160405180910390a4610dbd83600089898989611558565b50505050505050565b8151835114610de75760405162461bcd60e51b815260040161043490611f0a565b6001600160a01b038416610e0d5760405162461bcd60e51b815260040161043490611f52565b3360005b8451811015610ef4576000858281518110610e2e57610e2e611e69565b602002602001015190506000858381518110610e4c57610e4c611e69565b602090810291909101810151600084815280835260408082206001600160a01b038e168352909352919091205490915081811015610e9c5760405162461bcd60e51b815260040161043490611f97565b6000838152602081815260408083206001600160a01b038e8116855292528083208585039055908b16825281208054849290610ed9908490611ef2565b9250508190555050505080610eed90611e7f565b9050610e11565b50846001600160a01b0316866001600160a01b0316826001600160a01b03167f4a39dc06d4c0dbc64b70af90fd698a233a518aa5d07e595d983b8c0526c8f7fb8787604051610f44929190611fe1565b60405180910390a4610f5a8187878787876116b4565b505050505050565b600380546001600160a01b038381166001600160a01b0319831681179093556040519116919082907f8be0079c531659141344cd1fd0a4f28419497f9722a3daafe3b4186f6b6457e090600090a35050565b816001600160a01b0316836001600160a01b031614156110285760405162461bcd60e51b815260206004820152602960248201527f455243313135353a2073657474696e6720617070726f76616c20737461747573604482015268103337b91039b2b63360b91b6064820152608401610434565b6001600160a01b03838116600081815260016020908152604080832094871680845294825291829020805460ff191686151590811790915591519182527f17307eab39ab6107e8899845ad3d59bd9653f200f220920489ca2b5937696c31910160405180910390a3505050565b6001600160a01b0383166110f75760405162461bcd60e51b815260206004820152602360248201527f455243313135353a206275726e2066726f6d20746865207a65726f206164647260448201526265737360e81b6064820152608401610434565b80518251146111185760405162461bcd60e51b815260040161043490611f0a565b604080516020810190915260009081905233905b835181101561122a57600084828151811061114957611149611e69565b60200260200101519050600084838151811061116757611167611e69565b602090810291909101810151600084815280835260408082206001600160a01b038c1683529093529190912054909150818110156111f35760405162461bcd60e51b8152602060048201526024808201527f455243313135353a206275726e20616d6f756e7420657863656564732062616c604482015263616e636560e01b6064820152608401610434565b6000928352602083815260408085206001600160a01b038b168652909152909220910390558061122281611e7f565b91505061112c565b5060006001600160a01b0316846001600160a01b0316826001600160a01b03167f4a39dc06d4c0dbc64b70af90fd698a233a518aa5d07e595d983b8c0526c8f7fb868660405161127b929190611fe1565b60405180910390a460408051602081019091526000905250505050565b6001600160a01b0384166112be5760405162461bcd60e51b815260040161043490611eb1565b81518351146112df5760405162461bcd60e51b815260040161043490611f0a565b3360005b845181101561137b578381815181106112fe576112fe611e69565b602002602001015160008087848151811061131b5761131b611e69565b602002602001015181526020019081526020016000206000886001600160a01b03166001600160a01b0316815260200190815260200160002060008282546113639190611ef2565b9091555081905061137381611e7f565b9150506112e3565b50846001600160a01b031660006001600160a01b0316826001600160a01b03167f4a39dc06d4c0dbc64b70af90fd698a233a518aa5d07e595d983b8c0526c8f7fb87876040516113cc929190611fe1565b60405180910390a4610793816000878787876116b4565b6001600160a01b0384166114095760405162461bcd60e51b815260040161043490611f52565b3360006114158561150d565b905060006114228561150d565b90506000868152602081815260408083206001600160a01b038c168452909152902054858110156114655760405162461bcd60e51b815260040161043490611f97565b6000878152602081815260408083206001600160a01b038d8116855292528083208985039055908a168252812080548892906114a2908490611ef2565b909155505060408051888152602081018890526001600160a01b03808b16928c821692918816917fc3d58168c5ae7397731d063d5bbf3d657854427343f4c083240f7aacaa2d0f62910160405180910390a4611502848a8a8a8a8a611558565b505050505050505050565b6040805160018082528183019092526060916000919060208083019080368337019050509050828160008151811061154757611547611e69565b602090810291909101015292915050565b6001600160a01b0384163b15610f5a5760405163f23a6e6160e01b81526001600160a01b0385169063f23a6e619061159c908990899088908890889060040161200f565b6020604051808303816000875af19250505080156115d7575060408051601f3d908101601f191682019092526115d491810190612054565b60015b611684576115e3612071565b806308c379a0141561161d57506115f861208d565b80611603575061161f565b8060405162461bcd60e51b81526004016104349190611855565b505b60405162461bcd60e51b815260206004820152603460248201527f455243313135353a207472616e7366657220746f206e6f6e2d455243313135356044820152732932b1b2b4bb32b91034b6b83632b6b2b73a32b960611b6064820152608401610434565b6001600160e01b0319811663f23a6e6160e01b14610dbd5760405162461bcd60e51b815260040161043490612117565b6001600160a01b0384163b15610f5a5760405163bc197c8160e01b81526001600160a01b0385169063bc197c81906116f8908990899088908890889060040161215f565b6020604051808303816000875af1925050508015611733575060408051601f3d908101601f1916820190925261173091810190612054565b60015b61173f576115e3612071565b6001600160e01b0319811663bc197c8160e01b14610dbd5760405162461bcd60e51b815260040161043490612117565b80356001600160a01b038116811461178657600080fd5b919050565b6000806040838503121561179e57600080fd5b6117a78361176f565b946020939093013593505050565b6001600160e01b031981168114610c8f57600080fd5b6000602082840312156117dd57600080fd5b81356117e8816117b5565b9392505050565b60006020828403121561180157600080fd5b5035919050565b6000815180845260005b8181101561182e57602081850181015186830182015201611812565b81811115611840576000602083870101525b50601f01601f19169290920160200192915050565b6020815260006117e86020830184611808565b6000806040838503121561187b57600080fd5b50508035926020909101359150565b634e487b7160e01b600052604160045260246000fd5b601f8201601f1916810167ffffffffffffffff811182821017156118c6576118c661188a565b6040525050565b600067ffffffffffffffff8211156118e7576118e761188a565b5060051b60200190565b600082601f83011261190257600080fd5b8135602061190f826118cd565b60405161191c82826118a0565b83815260059390931b850182019282810191508684111561193c57600080fd5b8286015b848110156119575780358352918301918301611940565b509695505050505050565b600082601f83011261197357600080fd5b813567ffffffffffffffff81111561198d5761198d61188a565b6040516119a4601f8301601f1916602001826118a0565b8181528460208386010111156119b957600080fd5b816020850160208301376000918101602001919091529392505050565b600080600080600060a086880312156119ee57600080fd5b6119f78661176f565b9450611a056020870161176f565b9350604086013567ffffffffffffffff80821115611a2257600080fd5b611a2e89838a016118f1565b94506060880135915080821115611a4457600080fd5b611a5089838a016118f1565b93506080880135915080821115611a6657600080fd5b50611a7388828901611962565b9150509295509295909350565b60008060408385031215611a9357600080fd5b823567ffffffffffffffff80821115611aab57600080fd5b818501915085601f830112611abf57600080fd5b81356020611acc826118cd565b604051611ad982826118a0565b83815260059390931b8501820192828101915089841115611af957600080fd5b948201945b83861015611b1e57611b0f8661176f565b82529482019490820190611afe565b96505086013592505080821115611b3457600080fd5b50611b41858286016118f1565b9150509250929050565b600081518084526020808501945080840160005b83811015611b7b57815187529582019590820190600101611b5f565b509495945050505050565b6020815260006117e86020830184611b4b565b81518152602080830151908201526040808301516001600160a01b031690820152606080830151908201526080808301519082015260a08101610460565b8035801515811461178657600080fd5b60008060408385031215611bfa57600080fd5b611c038361176f565b9150611c1160208401611bd7565b90509250929050565b60008060408385031215611c2d57600080fd5b823567ffffffffffffffff80821115611c4557600080fd5b611c51868387016118f1565b93506020850135915080821115611b3457600080fd5b600060208284031215611c7957600080fd5b6117e882611bd7565b6020808252825182820181905260009190848201906040850190845b81811015611cf557611ce283855180518252602080820151908301526040808201516001600160a01b03169083015260608082015190830152608090810151910152565b9284019260a09290920191600101611c9e565b50909695505050505050565b60008060408385031215611d1457600080fd5b611d1d8361176f565b9150611c116020840161176f565b600080600080600060a08688031215611d4357600080fd5b611d4c8661176f565b9450611d5a6020870161176f565b93506040860135925060608601359150608086013567ffffffffffffffff811115611d8457600080fd5b611a7388828901611962565b600060208284031215611da257600080fd5b6117e88261176f565b600181811c90821680611dbf57607f821691505b60208210811415611de057634e487b7160e01b600052602260045260246000fd5b50919050565b634e487b7160e01b600052601160045260246000fd5b6000816000190483118215151615611e1657611e16611de6565b500290565b6020808252602e908201527f455243313135353a2063616c6c6572206973206e6f7420746f6b656e206f776e60408201526d195c881bdc88185c1c1c9bdd995960921b606082015260800190565b634e487b7160e01b600052603260045260246000fd5b6000600019821415611e9357611e93611de6565b5060010190565b600082821015611eac57611eac611de6565b500390565b60208082526021908201527f455243313135353a206d696e7420746f20746865207a65726f206164647265736040820152607360f81b606082015260800190565b60008219821115611f0557611f05611de6565b500190565b60208082526028908201527f455243313135353a2069647320616e6420616d6f756e7473206c656e677468206040820152670dad2e6dac2e8c6d60c31b606082015260800190565b60208082526025908201527f455243313135353a207472616e7366657220746f20746865207a65726f206164604082015264647265737360d81b606082015260800190565b6020808252602a908201527f455243313135353a20696e73756666696369656e742062616c616e636520666f60408201526939103a3930b739b332b960b11b606082015260800190565b604081526000611ff46040830185611b4b565b82810360208401526120068185611b4b565b95945050505050565b6001600160a01b03868116825285166020820152604081018490526060810183905260a06080820181905260009061204990830184611808565b979650505050505050565b60006020828403121561206657600080fd5b81516117e8816117b5565b600060033d111561208a5760046000803e5060005160e01c5b90565b600060443d101561209b5790565b6040516003193d81016004833e81513d67ffffffffffffffff81602484011181841117156120cb57505050505090565b82850191508151818111156120e35750505050505090565b843d87010160208285010111156120fd5750505050505090565b61210c602082860101876118a0565b509095945050505050565b60208082526028908201527f455243313135353a204552433131353552656365697665722072656a656374656040820152676420746f6b656e7360c01b606082015260800190565b6001600160a01b0386811682528516602082015260a06040820181905260009061218b90830186611b4b565b828103606084015261219d8186611b4b565b905082810360808401526121b18185611808565b9897505050505050505056fea2646970667358221220eb89dfa9eeedd1c712b2a2d40f588c219a979ae21230ff981ceb46a5d91ca2a564736f6c634300080b0033",
  "linkReferences": {},
  "deployedLinkReferences": {}
}