{
  "_format": "hh-sol-artifact-1",
  "contractName": "Contract",
  "sourceName": "contracts/Contract.sol",
  "abi": [
    {
      "inputs": [
        {
          "internalType": "string",
          "name": "_name",
          "type": "string"
        },
        {
          "internalType": "string",
          "name": "_symbol",
          "type": "string"
        },
        {
          "internalType": "string",
          "name": "_uri",
          "type": "string"
        }
      ],
      "stateMutability": "nonpayable",
      "type": "constructor"
    },
    {
      "anonymous": false,
      "inputs": [
        {
          "indexed": true,
          "internalType": "address",
          "name": "account",
          "type": "address"
        },
        {
          "indexed": true,
          "internalType": "address",
          "name": "operator",
          "type": "address"
        },
        {
          "indexed": false,
          "internalType": "bool",
          "name": "approved",
          "type": "bool"
        }
      ],
      "name": "ApprovalForAll",
      "type": "event"
    },
    {
      "anonymous": false,
      "inputs": [
        {
          "indexed": false,
          "internalType": "uint256",
          "name": "id",
          "type": "uint256"
        },
        {
          "indexed": false,
          "internalType": "uint256",
          "name": "amount",
          "type": "uint256"
        },
        {
          "indexed": true,
          "internalType": "address",
          "name": "to",
          "type": "address"
        },
        {
          "indexed": false,
          "internalType": "uint256",
          "name": "cost",
          "type": "uint256"
        },
        {
          "indexed": false,
          "internalType": "uint256",
          "name": "timestamp",
          "type": "uint256"
        }
      ],
      "name": "Minted",
      "type": "event"
    },
    {
      "anonymous": false,
      "inputs": [
        {
          "indexed": true,
          "internalType": "address",
          "name": "previousOwner",
          "type": "address"
        },
        {
          "indexed": true,
          "internalType": "address",
          "name": "newOwner",
          "type": "address"
        }
      ],
      "name": "OwnershipTransferred",
      "type": "event"
    },
    {
      "anonymous": false,
      "inputs": [
        {
          "indexed": false,
          "internalType": "uint256[]",
          "name": "ids",
          "type": "uint256[]"
        },
        {
          "indexed": false,
          "internalType": "uint256[]",
          "name": "amounts",
          "type": "uint256[]"
        },
        {
          "indexed": true,
          "internalType": "address",
          "name": "to",
          "type": "address"
        },
        {
          "indexed": false,
          "internalType": "uint256",
          "name": "timestamp",
          "type": "uint256"
        }
      ],
      "name": "Saled",
      "type": "event"
    },
    {
      "anonymous": false,
      "inputs": [
        {
          "indexed": true,
          "internalType": "address",
          "name": "operator",
          "type": "address"
        },
        {
          "indexed": true,
          "internalType": "address",
          "name": "from",
          "type": "address"
        },
        {
          "indexed": true,
          "internalType": "address",
          "name": "to",
          "type": "address"
        },
        {
          "indexed": false,
          "internalType": "uint256[]",
          "name": "ids",
          "type": "uint256[]"
        },
        {
          "indexed": false,
          "internalType": "uint256[]",
          "name": "values",
          "type": "uint256[]"
        }
      ],
      "name": "TransferBatch",
      "type": "event"
    },
    {
      "anonymous": false,
      "inputs": [
        {
          "indexed": true,
          "internalType": "address",
          "name": "operator",
          "type": "address"
        },
        {
          "indexed": true,
          "internalType": "address",
          "name": "from",
          "type": "address"
        },
        {
          "indexed": true,
          "internalType": "address",
          "name": "to",
          "type": "address"
        },
        {
          "indexed": false,
          "internalType": "uint256",
          "name": "id",
          "type": "uint256"
        },
        {
          "indexed": false,
          "internalType": "uint256",
          "name": "value",
          "type": "uint256"
        }
      ],
      "name": "TransferSingle",
      "type": "event"
    },
    {
      "anonymous": false,
      "inputs": [
        {
          "indexed": false,
          "internalType": "string",
          "name": "value",
          "type": "string"
        },
        {
          "indexed": true,
          "internalType": "uint256",
          "name": "id",
          "type": "uint256"
        }
      ],
      "name": "URI",
      "type": "event"
    },
    {
      "inputs": [
        {
          "internalType": "address",
          "name": "account",
          "type": "address"
        },
        {
          "internalType": "uint256",
          "name": "id",
          "type": "uint256"
        }
      ],
      "name": "balanceOf",
      "outputs": [
        {
          "internalType": "uint256",
          "name": "",
          "type": "uint256"
        }
      ],
      "stateMutability": "view",
      "type": "function"
    },
    {
      "inputs": [
        {
          "internalType": "address[]",
          "name": "accounts",
          "type": "address[]"
        },
        {
          "internalType": "uint256[]",
          "name": "ids",
          "type": "uint256[]"
        }
      ],
      "name": "balanceOfBatch",
      "outputs": [
        {
          "internalType": "uint256[]",
          "name": "",
          "type": "uint256[]"
        }
      ],
      "stateMutability": "view",
      "type": "function"
    },
    {
      "inputs": [
        {
          "internalType": "uint256[]",
          "name": "tokenIds",
          "type": "uint256[]"
        },
        {
          "internalType": "uint256[]",
          "name": "amounts",
          "type": "uint256[]"
        }
      ],
      "name": "buyFromServer",
      "outputs": [],
      "stateMutability": "nonpayable",
      "type": "function"
    },
    {
      "inputs": [],
      "name": "deposit",
      "outputs": [],
      "stateMutability": "payable",
      "type": "function"
    },
    {
      "inputs": [],
      "name": "getAllNFTs",
      "outputs": [
        {
          "components": [
            {
              "internalType": "uint256",
              "name": "id",
              "type": "uint256"
            },
            {
              "internalType": "uint256",
              "name": "amount",
              "type": "uint256"
            },
            {
              "internalType": "address",
              "name": "owner",
              "type": "address"
            },
            {
              "internalType": "uint256",
              "name": "cost",
              "type": "uint256"
            },
            {
              "internalType": "uint256",
              "name": "timestamp",
              "type": "uint256"
            }
          ],
          "internalType": "struct Contract.SaleStruct[]",
          "name": "",
          "type": "tuple[]"
        }
      ],
      "stateMutability": "view",
      "type": "function"
    },
    {
      "inputs": [
        {
          "internalType": "uint256",
          "name": "tokenId",
          "type": "uint256"
        }
      ],
      "name": "getAnNFTs",
      "outputs": [
        {
          "components": [
            {
              "internalType": "uint256",
              "name": "id",
              "type": "uint256"
            },
            {
              "internalType": "uint256",
              "name": "amount",
              "type": "uint256"
            },
            {
              "internalType": "address",
              "name": "owner",
              "type": "address"
            },
            {
              "internalType": "uint256",
              "name": "cost",
              "type": "uint256"
            },
            {
              "internalType": "uint256",
              "name": "timestamp",
              "type": "uint256"
            }
          ],
          "internalType": "struct Contract.SaleStruct",
          "name": "",
          "type": "tuple"
        }
      ],
      "stateMutability": "view",
      "type": "function"
    },
    {
      "inputs": [
        {
          "internalType": "address",
          "name": "account",
          "type": "address"
        },
        {
          "internalType": "address",
          "name": "operator",
          "type": "address"
        }
      ],
      "name": "isApprovedForAll",
      "outputs": [
        {
          "internalType": "bool",
          "name": "",
          "type": "bool"
        }
      ],
      "stateMutability": "view",
      "type": "function"
    },
    {
      "inputs": [
        {
          "internalType": "uint256",
          "name": "nftType",
          "type": "uint256"
        },
        {
          "internalType": "uint256",
          "name": "amount",
          "type": "uint256"
        }
      ],
      "name": "mint",
      "outputs": [],
      "stateMutability": "nonpayable",
      "type": "function"
    },
    {
      "inputs": [],
      "name": "name",
      "outputs": [
        {
          "internalType": "string",
          "name": "",
          "type": "string"
        }
      ],
      "stateMutability": "view",
      "type": "function"
    },
    {
      "inputs": [],
      "name": "owner",
      "outputs": [
        {
          "internalType": "address",
          "name": "",
          "type": "address"
        }
      ],
      "stateMutability": "view",
      "type": "function"
    },
    {
      "inputs": [],
      "name": "paused",
      "outputs": [
        {
          "internalType": "bool",
          "name": "",
          "type": "bool"
        }
      ],
      "stateMutability": "view",
      "type": "function"
    },
    {
      "inputs": [
        {
          "internalType": "address",
          "name": "to",
          "type": "address"
        },
        {
          "internalType": "uint256",
          "name": "amount",
          "type": "uint256"
        }
      ],
      "name": "payTo",
      "outputs": [],
      "stateMutability": "nonpayable",
      "type": "function"
    },
    {
      "inputs": [],
      "name": "renounceOwnership",
      "outputs": [],
      "stateMutability": "nonpayable",
      "type": "function"
    },
    {
      "inputs": [
        {
          "internalType": "address",
          "name": "from",
          "type": "address"
        },
        {
          "internalType": "address",
          "name": "to",
          "type": "address"
        },
        {
          "internalType": "uint256[]",
          "name": "ids",
          "type": "uint256[]"
        },
        {
          "internalType": "uint256[]",
          "name": "amounts",
          "type": "uint256[]"
        },
        {
          "internalType": "bytes",
          "name": "data",
          "type": "bytes"
        }
      ],
      "name": "safeBatchTransferFrom",
      "outputs": [],
      "stateMutability": "nonpayable",
      "type": "function"
    },
    {
      "inputs": [
        {
          "internalType": "address",
          "name": "from",
          "type": "address"
        },
        {
          "internalType": "address",
          "name": "to",
          "type": "address"
        },
        {
          "internalType": "uint256",
          "name": "id",
          "type": "uint256"
        },
        {
          "internalType": "uint256",
          "name": "amount",
          "type": "uint256"
        },
        {
          "internalType": "bytes",
          "name": "data",
          "type": "bytes"
        }
      ],
      "name": "safeTransferFrom",
      "outputs": [],
      "stateMutability": "nonpayable",
      "type": "function"
    },
    {
      "inputs": [
        {
          "internalType": "address",
          "name": "operator",
          "type": "address"
        },
        {
          "internalType": "bool",
          "name": "approved",
          "type": "bool"
        }
      ],
      "name": "setApprovalForAll",
      "outputs": [],
      "stateMutability": "nonpayable",
      "type": "function"
    },
    {
      "inputs": [
        {
          "internalType": "bool",
          "name": "_state",
          "type": "bool"
        }
      ],
      "name": "setPause",
      "outputs": [],
      "stateMutability": "nonpayable",
      "type": "function"
    },
    {
      "inputs": [
        {
          "internalType": "bytes4",
          "name": "interfaceId",
          "type": "bytes4"
        }
      ],
      "name": "supportsInterface",
      "outputs": [
        {
          "internalType": "bool",
          "name": "",
          "type": "bool"
        }
      ],
      "stateMutability": "view",
      "type": "function"
    },
    {
      "inputs": [],
      "name": "symbol",
      "outputs": [
        {
          "internalType": "string",
          "name": "",
          "type": "string"
        }
      ],
      "stateMutability": "view",
      "type": "function"
    },
    {
      "inputs": [
        {
          "internalType": "address",
          "name": "newOwner",
          "type": "address"
        }
      ],
      "name": "transferOwnership",
      "outputs": [],
      "stateMutability": "nonpayable",
      "type": "function"
    },
    {
      "inputs": [
        {
          "internalType": "uint256",
          "name": "",
          "type": "uint256"
        }
      ],
      "name": "uri",
      "outputs": [
        {
          "internalType": "string",
          "name": "",
          "type": "string"
        }
      ],
      "stateMutability": "view",
      "type": "function"
    }
  ],
  "bytecode": "0x60806040526003805460ff60a01b191690553480156200001e57600080fd5b506040516200280e3803806200280e8339810160408190526200004191620003df565b806200004d8162000201565b5062000059336200021a565b82516200006e9060059060208601906200026c565b508151620000849060069060208501906200026c565b50506004602081905260017fabd6e7cb50984ff9c2f3e18a2660c3353dadf4e3291deeb275dae2cd1e44fe055560027f91da3fd0782e51c6b3986e9e672fd566868e71f3dbc2d6c2cd6fbb3e361af2a75560037f04cde762ef08b6b6c5ded8e8c4c0b3f4e5c9ad7342c88fcc93681b4588b73f05557f5c6b02db8b672415ffad906d7ccee10bd53dbad7d0b29e2bc0e50c93d5f3109355505060057ff7deed9399d719bf61dcb1322c056a03a885c275ab093673b0cc182b84bea0615560067feaa72e3626d79eea854e214b64a34b95d0c9348f5b8df0b074d774f7dba83c655560077f083fc81be30b6287dea23aa60f8ffaf268f507cdeac82ed9644e506b59c54ff05560087f0a56194ab293ddb0061a682f5e6edaea4986ae06e1ce58a7ee7f74df8d95443d5560097ffb8cf1d12598d1a039dd1d106665851a96aadf67d0d9ed76fceea282119208b7556103e8600052600a7f290f3bb17f303edd0f106ab04bdb0515d193106e8c2b48d993115d216da01cb155620004ad565b8051620002169060029060208401906200026c565b5050565b600380546001600160a01b038381166001600160a01b0319831681179093556040519116919082907f8be0079c531659141344cd1fd0a4f28419497f9722a3daafe3b4186f6b6457e090600090a35050565b8280546200027a9062000470565b90600052602060002090601f0160209004810192826200029e5760008555620002e9565b82601f10620002b957805160ff1916838001178555620002e9565b82800160010185558215620002e9579182015b82811115620002e9578251825591602001919060010190620002cc565b50620002f7929150620002fb565b5090565b5b80821115620002f75760008155600101620002fc565b634e487b7160e01b600052604160045260246000fd5b600082601f8301126200033a57600080fd5b81516001600160401b038082111562000357576200035762000312565b604051601f8301601f19908116603f0116810190828211818310171562000382576200038262000312565b816040528381526020925086838588010111156200039f57600080fd5b600091505b83821015620003c35785820183015181830184015290820190620003a4565b83821115620003d55760008385830101525b9695505050505050565b600080600060608486031215620003f557600080fd5b83516001600160401b03808211156200040d57600080fd5b6200041b8783880162000328565b945060208601519150808211156200043257600080fd5b620004408783880162000328565b935060408601519150808211156200045757600080fd5b50620004668682870162000328565b9150509250925092565b600181811c908216806200048557607f821691505b60208210811415620004a757634e487b7160e01b600052602260045260246000fd5b50919050565b61235180620004bd6000396000f3fe6080604052600436106101295760003560e01c80637bf08621116100ab578063bedb86fb1161006f578063bedb86fb14610342578063d0e30db0146101f3578063e0391b0914610362578063e985e9c514610384578063f242432a146103cd578063f2fde38b146103ed57600080fd5b80637bf08621146102a55780638da5cb5b146102c557806395d89b41146102ed578063a22cb46514610302578063b1f6e53f1461032257600080fd5b80632eb2c2d6116100f25780632eb2c2d6146101f55780634e1273f4146102155780635c975abb1461024257806368ef9d3c14610263578063715018a61461029057600080fd5b8062fdd58e1461012e57806301ffc9a71461016157806306fdde03146101915780630e89341c146101b35780631b2ef1ca146101d3575b600080fd5b34801561013a57600080fd5b5061014e6101493660046118b3565b61040d565b6040519081526020015b60405180910390f35b34801561016d57600080fd5b5061018161017c3660046118f3565b6104a6565b6040519015158152602001610158565b34801561019d57600080fd5b506101a66104f6565b6040516101589190611964565b3480156101bf57600080fd5b506101a66101ce366004611977565b610584565b3480156101df57600080fd5b506101f36101ee366004611990565b610618565b005b34801561020157600080fd5b506101f3610210366004611afe565b61081f565b34801561022157600080fd5b50610235610230366004611ba8565b61086b565b6040516101589190611cae565b34801561024e57600080fd5b5060035461018190600160a01b900460ff1681565b34801561026f57600080fd5b5061028361027e366004611977565b610995565b6040516101589190611cc1565b34801561029c57600080fd5b506101f3610a47565b3480156102b157600080fd5b506101f36102c03660046118b3565b610a5b565b3480156102d157600080fd5b506003546040516001600160a01b039091168152602001610158565b3480156102f957600080fd5b506101a6610ac8565b34801561030e57600080fd5b506101f361031d366004611d0f565b610ad5565b34801561032e57600080fd5b506101f361033d366004611d42565b610ae4565b34801561034e57600080fd5b506101f361035d366004611d8f565b610c42565b34801561036e57600080fd5b50610377610c68565b6040516101589190611daa565b34801561039057600080fd5b5061018161039f366004611e29565b6001600160a01b03918216600090815260016020908152604080832093909416825291909152205460ff1690565b3480156103d957600080fd5b506101f36103e8366004611e53565b610cfc565b3480156103f957600080fd5b506101f3610408366004611eb8565b610d41565b60006001600160a01b03831661047d5760405162461bcd60e51b815260206004820152602a60248201527f455243313135353a2061646472657373207a65726f206973206e6f742061207660448201526930b634b21037bbb732b960b11b60648201526084015b60405180910390fd5b506000818152602081815260408083206001600160a01b03861684529091529020545b92915050565b60006001600160e01b03198216636cdb3d1360e11b14806104d757506001600160e01b031982166303a24d0760e21b145b806104a057506301ffc9a760e01b6001600160e01b03198316146104a0565b6005805461050390611ed3565b80601f016020809104026020016040519081016040528092919081815260200182805461052f90611ed3565b801561057c5780601f106105515761010080835404028352916020019161057c565b820191906000526020600020905b81548152906001019060200180831161055f57829003601f168201915b505050505081565b60606002805461059390611ed3565b80601f01602080910402602001604051908101604052809291908181526020018280546105bf90611ed3565b801561060c5780601f106105e15761010080835404028352916020019161060c565b820191906000526020600020905b8154815290600101906020018083116105ef57829003601f168201915b50505050509050919050565b610620610dba565b600354600160a01b900460ff16156106745760405162461bcd60e51b81526020600482015260176024820152764e46547320756e646572206d61696e74656e616e63652160481b6044820152606401610474565b60008281526004602090815260408083205481519283019091529181526106a090339083908590610e14565b60006106b4846706f05b59d3b20000611f24565b6040805160a08101825284815260208082018781523383850181815260608086018881524260808089018281526007805460018101825560009190915299517fa66cc928b5edb82af9bd49922954155ab7b0942694bea4ce44661d9a8736c6886005909b029a8b015596517fa66cc928b5edb82af9bd49922954155ab7b0942694bea4ce44661d9a8736c6898a015593517fa66cc928b5edb82af9bd49922954155ab7b0942694bea4ce44661d9a8736c68a890180546001600160a01b0319166001600160a01b0390921691909117905590517fa66cc928b5edb82af9bd49922954155ab7b0942694bea4ce44661d9a8736c68b88015593517fa66cc928b5edb82af9bd49922954155ab7b0942694bea4ce44661d9a8736c68c9096019590955585518981529384018a905294830186905292820152929350917fa6fab0f8def4cda731cc57e1237e5c4cdd5afc296a84c60accd4c7848f7bf21e910160405180910390a250505050565b6001600160a01b03851633148061083b575061083b853361039f565b6108575760405162461bcd60e51b815260040161047490611f43565b6108648585858585610eee565b5050505050565b606081518351146108d05760405162461bcd60e51b815260206004820152602960248201527f455243313135353a206163636f756e747320616e6420696473206c656e677468604482015268040dad2e6dac2e8c6d60bb1b6064820152608401610474565b6000835167ffffffffffffffff8111156108ec576108ec6119b2565b604051908082528060200260200182016040528015610915578160200160208202803683370190505b50905060005b845181101561098d5761096085828151811061093957610939611f91565b602002602001015185838151811061095357610953611f91565b602002602001015161040d565b82828151811061097257610972611f91565b602090810291909101015261098681611fa7565b905061091b565b509392505050565b6109d06040518060a00160405280600081526020016000815260200160006001600160a01b0316815260200160008152602001600081525090565b60076109dd600184611fc2565b815481106109ed576109ed611f91565b60009182526020918290206040805160a08101825260059093029091018054835260018101549383019390935260028301546001600160a01b03169082015260038201546060820152600490910154608082015292915050565b610a4f610dba565b610a59600061108a565b565b610a63610dba565b6000826001600160a01b03168260405160006040518083038185875af1925050503d8060008114610ab0576040519150601f19603f3d011682016040523d82523d6000602084013e610ab5565b606091505b5050905080610ac357600080fd5b505050565b6006805461050390611ed3565b610ae03383836110dc565b5050565b600354600160a01b900460ff1615610b385760405162461bcd60e51b81526020600482015260176024820152764e46547320756e646572206d61696e74656e616e63652160481b6044820152606401610474565b610b54610b4d6003546001600160a01b031690565b83836111bd565b610b6f338383604051806020016040528060008152506113c0565b60005b8251811015610bf8576000838281518110610b8f57610b8f611f91565b60200260200101519050610bb4610bae6003546001600160a01b031690565b8261040d565b6007610bc1600184611fc2565b81548110610bd157610bd1611f91565b60009182526020909120600160059092020101555080610bf081611fa7565b915050610b72565b50336001600160a01b03167f78a4d5d83d0dadc29ff373012ec001cf272f825f8ac0a40ccddf07ff51940582838342604051610c3693929190611fd9565b60405180910390a25050565b610c4a610dba565b60038054911515600160a01b0260ff60a01b19909216919091179055565b60606007805480602002602001604051908101604052809291908181526020016000905b82821015610cf35760008481526020908190206040805160a08101825260058602909201805483526001808201548486015260028201546001600160a01b031692840192909252600381015460608401526004015460808301529083529092019101610c8c565b50505050905090565b6001600160a01b038516331480610d185750610d18853361039f565b610d345760405162461bcd60e51b815260040161047490611f43565b610864858585858561150b565b610d49610dba565b6001600160a01b038116610dae5760405162461bcd60e51b815260206004820152602660248201527f4f776e61626c653a206e6577206f776e657220697320746865207a65726f206160448201526564647265737360d01b6064820152608401610474565b610db78161108a565b50565b6003546001600160a01b03163314610a595760405162461bcd60e51b815260206004820181905260248201527f4f776e61626c653a2063616c6c6572206973206e6f7420746865206f776e65726044820152606401610474565b6001600160a01b038416610e3a5760405162461bcd60e51b81526004016104749061200f565b336000610e4685611635565b90506000610e5385611635565b90506000868152602081815260408083206001600160a01b038b16845290915281208054879290610e85908490612050565b909155505060408051878152602081018790526001600160a01b03808a1692600092918716917fc3d58168c5ae7397731d063d5bbf3d657854427343f4c083240f7aacaa2d0f62910160405180910390a4610ee583600089898989611680565b50505050505050565b8151835114610f0f5760405162461bcd60e51b815260040161047490612068565b6001600160a01b038416610f355760405162461bcd60e51b8152600401610474906120b0565b3360005b845181101561101c576000858281518110610f5657610f56611f91565b602002602001015190506000858381518110610f7457610f74611f91565b602090810291909101810151600084815280835260408082206001600160a01b038e168352909352919091205490915081811015610fc45760405162461bcd60e51b8152600401610474906120f5565b6000838152602081815260408083206001600160a01b038e8116855292528083208585039055908b16825281208054849290611001908490612050565b925050819055505050508061101590611fa7565b9050610f39565b50846001600160a01b0316866001600160a01b0316826001600160a01b03167f4a39dc06d4c0dbc64b70af90fd698a233a518aa5d07e595d983b8c0526c8f7fb878760405161106c92919061213f565b60405180910390a46110828187878787876117dc565b505050505050565b600380546001600160a01b038381166001600160a01b0319831681179093556040519116919082907f8be0079c531659141344cd1fd0a4f28419497f9722a3daafe3b4186f6b6457e090600090a35050565b816001600160a01b0316836001600160a01b031614156111505760405162461bcd60e51b815260206004820152602960248201527f455243313135353a2073657474696e6720617070726f76616c20737461747573604482015268103337b91039b2b63360b91b6064820152608401610474565b6001600160a01b03838116600081815260016020908152604080832094871680845294825291829020805460ff191686151590811790915591519182527f17307eab39ab6107e8899845ad3d59bd9653f200f220920489ca2b5937696c31910160405180910390a3505050565b6001600160a01b03831661121f5760405162461bcd60e51b815260206004820152602360248201527f455243313135353a206275726e2066726f6d20746865207a65726f206164647260448201526265737360e81b6064820152608401610474565b80518251146112405760405162461bcd60e51b815260040161047490612068565b604080516020810190915260009081905233905b835181101561135257600084828151811061127157611271611f91565b60200260200101519050600084838151811061128f5761128f611f91565b602090810291909101810151600084815280835260408082206001600160a01b038c16835290935291909120549091508181101561131b5760405162461bcd60e51b8152602060048201526024808201527f455243313135353a206275726e20616d6f756e7420657863656564732062616c604482015263616e636560e01b6064820152608401610474565b6000928352602083815260408085206001600160a01b038b168652909152909220910390558061134a81611fa7565b915050611254565b5060006001600160a01b0316846001600160a01b0316826001600160a01b03167f4a39dc06d4c0dbc64b70af90fd698a233a518aa5d07e595d983b8c0526c8f7fb86866040516113a392919061213f565b60405180910390a460408051602081019091526000905250505050565b6001600160a01b0384166113e65760405162461bcd60e51b81526004016104749061200f565b81518351146114075760405162461bcd60e51b815260040161047490612068565b3360005b84518110156114a35783818151811061142657611426611f91565b602002602001015160008087848151811061144357611443611f91565b602002602001015181526020019081526020016000206000886001600160a01b03166001600160a01b03168152602001908152602001600020600082825461148b9190612050565b9091555081905061149b81611fa7565b91505061140b565b50846001600160a01b031660006001600160a01b0316826001600160a01b03167f4a39dc06d4c0dbc64b70af90fd698a233a518aa5d07e595d983b8c0526c8f7fb87876040516114f492919061213f565b60405180910390a4610864816000878787876117dc565b6001600160a01b0384166115315760405162461bcd60e51b8152600401610474906120b0565b33600061153d85611635565b9050600061154a85611635565b90506000868152602081815260408083206001600160a01b038c1684529091529020548581101561158d5760405162461bcd60e51b8152600401610474906120f5565b6000878152602081815260408083206001600160a01b038d8116855292528083208985039055908a168252812080548892906115ca908490612050565b909155505060408051888152602081018890526001600160a01b03808b16928c821692918816917fc3d58168c5ae7397731d063d5bbf3d657854427343f4c083240f7aacaa2d0f62910160405180910390a461162a848a8a8a8a8a611680565b505050505050505050565b6040805160018082528183019092526060916000919060208083019080368337019050509050828160008151811061166f5761166f611f91565b602090810291909101015292915050565b6001600160a01b0384163b156110825760405163f23a6e6160e01b81526001600160a01b0385169063f23a6e61906116c4908990899088908890889060040161216d565b6020604051808303816000875af19250505080156116ff575060408051601f3d908101601f191682019092526116fc918101906121b2565b60015b6117ac5761170b6121cf565b806308c379a0141561174557506117206121eb565b8061172b5750611747565b8060405162461bcd60e51b81526004016104749190611964565b505b60405162461bcd60e51b815260206004820152603460248201527f455243313135353a207472616e7366657220746f206e6f6e2d455243313135356044820152732932b1b2b4bb32b91034b6b83632b6b2b73a32b960611b6064820152608401610474565b6001600160e01b0319811663f23a6e6160e01b14610ee55760405162461bcd60e51b815260040161047490612275565b6001600160a01b0384163b156110825760405163bc197c8160e01b81526001600160a01b0385169063bc197c819061182090899089908890889088906004016122bd565b6020604051808303816000875af192505050801561185b575060408051601f3d908101601f19168201909252611858918101906121b2565b60015b6118675761170b6121cf565b6001600160e01b0319811663bc197c8160e01b14610ee55760405162461bcd60e51b815260040161047490612275565b80356001600160a01b03811681146118ae57600080fd5b919050565b600080604083850312156118c657600080fd5b6118cf83611897565b946020939093013593505050565b6001600160e01b031981168114610db757600080fd5b60006020828403121561190557600080fd5b8135611910816118dd565b9392505050565b6000815180845260005b8181101561193d57602081850181015186830182015201611921565b8181111561194f576000602083870101525b50601f01601f19169290920160200192915050565b6020815260006119106020830184611917565b60006020828403121561198957600080fd5b5035919050565b600080604083850312156119a357600080fd5b50508035926020909101359150565b634e487b7160e01b600052604160045260246000fd5b601f8201601f1916810167ffffffffffffffff811182821017156119ee576119ee6119b2565b6040525050565b600067ffffffffffffffff821115611a0f57611a0f6119b2565b5060051b60200190565b600082601f830112611a2a57600080fd5b81356020611a37826119f5565b604051611a4482826119c8565b83815260059390931b8501820192828101915086841115611a6457600080fd5b8286015b84811015611a7f5780358352918301918301611a68565b509695505050505050565b600082601f830112611a9b57600080fd5b813567ffffffffffffffff811115611ab557611ab56119b2565b604051611acc601f8301601f1916602001826119c8565b818152846020838601011115611ae157600080fd5b816020850160208301376000918101602001919091529392505050565b600080600080600060a08688031215611b1657600080fd5b611b1f86611897565b9450611b2d60208701611897565b9350604086013567ffffffffffffffff80821115611b4a57600080fd5b611b5689838a01611a19565b94506060880135915080821115611b6c57600080fd5b611b7889838a01611a19565b93506080880135915080821115611b8e57600080fd5b50611b9b88828901611a8a565b9150509295509295909350565b60008060408385031215611bbb57600080fd5b823567ffffffffffffffff80821115611bd357600080fd5b818501915085601f830112611be757600080fd5b81356020611bf4826119f5565b604051611c0182826119c8565b83815260059390931b8501820192828101915089841115611c2157600080fd5b948201945b83861015611c4657611c3786611897565b82529482019490820190611c26565b96505086013592505080821115611c5c57600080fd5b50611c6985828601611a19565b9150509250929050565b600081518084526020808501945080840160005b83811015611ca357815187529582019590820190600101611c87565b509495945050505050565b6020815260006119106020830184611c73565b81518152602080830151908201526040808301516001600160a01b031690820152606080830151908201526080808301519082015260a081016104a0565b803580151581146118ae57600080fd5b60008060408385031215611d2257600080fd5b611d2b83611897565b9150611d3960208401611cff565b90509250929050565b60008060408385031215611d5557600080fd5b823567ffffffffffffffff80821115611d6d57600080fd5b611d7986838701611a19565b93506020850135915080821115611c5c57600080fd5b600060208284031215611da157600080fd5b61191082611cff565b6020808252825182820181905260009190848201906040850190845b81811015611e1d57611e0a83855180518252602080820151908301526040808201516001600160a01b03169083015260608082015190830152608090810151910152565b9284019260a09290920191600101611dc6565b50909695505050505050565b60008060408385031215611e3c57600080fd5b611e4583611897565b9150611d3960208401611897565b600080600080600060a08688031215611e6b57600080fd5b611e7486611897565b9450611e8260208701611897565b93506040860135925060608601359150608086013567ffffffffffffffff811115611eac57600080fd5b611b9b88828901611a8a565b600060208284031215611eca57600080fd5b61191082611897565b600181811c90821680611ee757607f821691505b60208210811415611f0857634e487b7160e01b600052602260045260246000fd5b50919050565b634e487b7160e01b600052601160045260246000fd5b6000816000190483118215151615611f3e57611f3e611f0e565b500290565b6020808252602e908201527f455243313135353a2063616c6c6572206973206e6f7420746f6b656e206f776e60408201526d195c881bdc88185c1c1c9bdd995960921b606082015260800190565b634e487b7160e01b600052603260045260246000fd5b6000600019821415611fbb57611fbb611f0e565b5060010190565b600082821015611fd457611fd4611f0e565b500390565b606081526000611fec6060830186611c73565b8281036020840152611ffe8186611c73565b915050826040830152949350505050565b60208082526021908201527f455243313135353a206d696e7420746f20746865207a65726f206164647265736040820152607360f81b606082015260800190565b6000821982111561206357612063611f0e565b500190565b60208082526028908201527f455243313135353a2069647320616e6420616d6f756e7473206c656e677468206040820152670dad2e6dac2e8c6d60c31b606082015260800190565b60208082526025908201527f455243313135353a207472616e7366657220746f20746865207a65726f206164604082015264647265737360d81b606082015260800190565b6020808252602a908201527f455243313135353a20696e73756666696369656e742062616c616e636520666f60408201526939103a3930b739b332b960b11b606082015260800190565b6040815260006121526040830185611c73565b82810360208401526121648185611c73565b95945050505050565b6001600160a01b03868116825285166020820152604081018490526060810183905260a0608082018190526000906121a790830184611917565b979650505050505050565b6000602082840312156121c457600080fd5b8151611910816118dd565b600060033d11156121e85760046000803e5060005160e01c5b90565b600060443d10156121f95790565b6040516003193d81016004833e81513d67ffffffffffffffff816024840111818411171561222957505050505090565b82850191508151818111156122415750505050505090565b843d870101602082850101111561225b5750505050505090565b61226a602082860101876119c8565b509095945050505050565b60208082526028908201527f455243313135353a204552433131353552656365697665722072656a656374656040820152676420746f6b656e7360c01b606082015260800190565b6001600160a01b0386811682528516602082015260a0604082018190526000906122e990830186611c73565b82810360608401526122fb8186611c73565b9050828103608084015261230f8185611917565b9897505050505050505056fea2646970667358221220d7515a2d030fbf72dff75b8787a20e2f8ed4b6f31e21f326381588be8ff530e764736f6c634300080b0033",
  "linkReferences": {},
  "deployedLinkReferences": {}
}