{
  "_format": "hh-sol-artifact-1",
  "contractName": "Contract",
  "sourceName": "src/contracts/Contract.sol",
  "abi": [
    {
      "inputs": [
        {
          "internalType": "string",
          "name": "_uri",
          "type": "string"
        }
      ],
      "stateMutability": "nonpayable",
      "type": "constructor"
    },
    {
      "anonymous": false,
      "inputs": [
        {
          "indexed": true,
          "internalType": "address",
          "name": "account",
          "type": "address"
        },
        {
          "indexed": true,
          "internalType": "address",
          "name": "operator",
          "type": "address"
        },
        {
          "indexed": false,
          "internalType": "bool",
          "name": "approved",
          "type": "bool"
        }
      ],
      "name": "ApprovalForAll",
      "type": "event"
    },
    {
      "anonymous": false,
      "inputs": [
        {
          "indexed": false,
          "internalType": "uint256",
          "name": "id",
          "type": "uint256"
        },
        {
          "indexed": false,
          "internalType": "uint256",
          "name": "amount",
          "type": "uint256"
        },
        {
          "indexed": true,
          "internalType": "address",
          "name": "to",
          "type": "address"
        },
        {
          "indexed": false,
          "internalType": "uint256",
          "name": "cost",
          "type": "uint256"
        },
        {
          "indexed": false,
          "internalType": "uint256",
          "name": "timestamp",
          "type": "uint256"
        }
      ],
      "name": "Minted",
      "type": "event"
    },
    {
      "anonymous": false,
      "inputs": [
        {
          "indexed": true,
          "internalType": "address",
          "name": "previousOwner",
          "type": "address"
        },
        {
          "indexed": true,
          "internalType": "address",
          "name": "newOwner",
          "type": "address"
        }
      ],
      "name": "OwnershipTransferred",
      "type": "event"
    },
    {
      "anonymous": false,
      "inputs": [
        {
          "indexed": true,
          "internalType": "address",
          "name": "operator",
          "type": "address"
        },
        {
          "indexed": true,
          "internalType": "address",
          "name": "from",
          "type": "address"
        },
        {
          "indexed": true,
          "internalType": "address",
          "name": "to",
          "type": "address"
        },
        {
          "indexed": false,
          "internalType": "uint256[]",
          "name": "ids",
          "type": "uint256[]"
        },
        {
          "indexed": false,
          "internalType": "uint256[]",
          "name": "values",
          "type": "uint256[]"
        }
      ],
      "name": "TransferBatch",
      "type": "event"
    },
    {
      "anonymous": false,
      "inputs": [
        {
          "indexed": true,
          "internalType": "address",
          "name": "operator",
          "type": "address"
        },
        {
          "indexed": true,
          "internalType": "address",
          "name": "from",
          "type": "address"
        },
        {
          "indexed": true,
          "internalType": "address",
          "name": "to",
          "type": "address"
        },
        {
          "indexed": false,
          "internalType": "uint256",
          "name": "id",
          "type": "uint256"
        },
        {
          "indexed": false,
          "internalType": "uint256",
          "name": "value",
          "type": "uint256"
        }
      ],
      "name": "TransferSingle",
      "type": "event"
    },
    {
      "anonymous": false,
      "inputs": [
        {
          "indexed": false,
          "internalType": "string",
          "name": "value",
          "type": "string"
        },
        {
          "indexed": true,
          "internalType": "uint256",
          "name": "id",
          "type": "uint256"
        }
      ],
      "name": "URI",
      "type": "event"
    },
    {
      "inputs": [
        {
          "internalType": "address",
          "name": "account",
          "type": "address"
        },
        {
          "internalType": "uint256",
          "name": "id",
          "type": "uint256"
        }
      ],
      "name": "balanceOf",
      "outputs": [
        {
          "internalType": "uint256",
          "name": "",
          "type": "uint256"
        }
      ],
      "stateMutability": "view",
      "type": "function"
    },
    {
      "inputs": [
        {
          "internalType": "address[]",
          "name": "accounts",
          "type": "address[]"
        },
        {
          "internalType": "uint256[]",
          "name": "ids",
          "type": "uint256[]"
        }
      ],
      "name": "balanceOfBatch",
      "outputs": [
        {
          "internalType": "uint256[]",
          "name": "",
          "type": "uint256[]"
        }
      ],
      "stateMutability": "view",
      "type": "function"
    },
    {
      "inputs": [
        {
          "internalType": "uint256",
          "name": "tokenId",
          "type": "uint256"
        },
        {
          "internalType": "uint256",
          "name": "amount",
          "type": "uint256"
        }
      ],
      "name": "buyFromServer",
      "outputs": [],
      "stateMutability": "nonpayable",
      "type": "function"
    },
    {
      "inputs": [],
      "name": "deposit",
      "outputs": [],
      "stateMutability": "payable",
      "type": "function"
    },
    {
      "inputs": [],
      "name": "getAllNFTs",
      "outputs": [
        {
          "components": [
            {
              "internalType": "uint256",
              "name": "id",
              "type": "uint256"
            },
            {
              "internalType": "uint256",
              "name": "amount",
              "type": "uint256"
            },
            {
              "internalType": "address",
              "name": "owner",
              "type": "address"
            },
            {
              "internalType": "uint256",
              "name": "cost",
              "type": "uint256"
            },
            {
              "internalType": "uint256",
              "name": "timestamp",
              "type": "uint256"
            }
          ],
          "internalType": "struct Contract.SaleStruct[]",
          "name": "",
          "type": "tuple[]"
        }
      ],
      "stateMutability": "view",
      "type": "function"
    },
    {
      "inputs": [
        {
          "internalType": "uint256",
          "name": "tokenId",
          "type": "uint256"
        }
      ],
      "name": "getAnNFTs",
      "outputs": [
        {
          "components": [
            {
              "internalType": "uint256",
              "name": "id",
              "type": "uint256"
            },
            {
              "internalType": "uint256",
              "name": "amount",
              "type": "uint256"
            },
            {
              "internalType": "address",
              "name": "owner",
              "type": "address"
            },
            {
              "internalType": "uint256",
              "name": "cost",
              "type": "uint256"
            },
            {
              "internalType": "uint256",
              "name": "timestamp",
              "type": "uint256"
            }
          ],
          "internalType": "struct Contract.SaleStruct",
          "name": "",
          "type": "tuple"
        }
      ],
      "stateMutability": "view",
      "type": "function"
    },
    {
      "inputs": [],
      "name": "getMyNFTs",
      "outputs": [
        {
          "components": [
            {
              "internalType": "uint256",
              "name": "id",
              "type": "uint256"
            },
            {
              "internalType": "uint256",
              "name": "amount",
              "type": "uint256"
            },
            {
              "internalType": "address",
              "name": "owner",
              "type": "address"
            },
            {
              "internalType": "uint256",
              "name": "cost",
              "type": "uint256"
            },
            {
              "internalType": "uint256",
              "name": "timestamp",
              "type": "uint256"
            }
          ],
          "internalType": "struct Contract.SaleStruct[]",
          "name": "",
          "type": "tuple[]"
        }
      ],
      "stateMutability": "view",
      "type": "function"
    },
    {
      "inputs": [
        {
          "internalType": "address",
          "name": "account",
          "type": "address"
        },
        {
          "internalType": "address",
          "name": "operator",
          "type": "address"
        }
      ],
      "name": "isApprovedForAll",
      "outputs": [
        {
          "internalType": "bool",
          "name": "",
          "type": "bool"
        }
      ],
      "stateMutability": "view",
      "type": "function"
    },
    {
      "inputs": [
        {
          "internalType": "uint256",
          "name": "nftType",
          "type": "uint256"
        },
        {
          "internalType": "uint256",
          "name": "amount",
          "type": "uint256"
        }
      ],
      "name": "mint",
      "outputs": [],
      "stateMutability": "nonpayable",
      "type": "function"
    },
    {
      "inputs": [],
      "name": "owner",
      "outputs": [
        {
          "internalType": "address",
          "name": "",
          "type": "address"
        }
      ],
      "stateMutability": "view",
      "type": "function"
    },
    {
      "inputs": [],
      "name": "paused",
      "outputs": [
        {
          "internalType": "bool",
          "name": "",
          "type": "bool"
        }
      ],
      "stateMutability": "view",
      "type": "function"
    },
    {
      "inputs": [
        {
          "internalType": "address",
          "name": "to",
          "type": "address"
        },
        {
          "internalType": "uint256",
          "name": "amount",
          "type": "uint256"
        }
      ],
      "name": "payTo",
      "outputs": [],
      "stateMutability": "nonpayable",
      "type": "function"
    },
    {
      "inputs": [],
      "name": "renounceOwnership",
      "outputs": [],
      "stateMutability": "nonpayable",
      "type": "function"
    },
    {
      "inputs": [
        {
          "internalType": "address",
          "name": "from",
          "type": "address"
        },
        {
          "internalType": "address",
          "name": "to",
          "type": "address"
        },
        {
          "internalType": "uint256[]",
          "name": "ids",
          "type": "uint256[]"
        },
        {
          "internalType": "uint256[]",
          "name": "amounts",
          "type": "uint256[]"
        },
        {
          "internalType": "bytes",
          "name": "data",
          "type": "bytes"
        }
      ],
      "name": "safeBatchTransferFrom",
      "outputs": [],
      "stateMutability": "nonpayable",
      "type": "function"
    },
    {
      "inputs": [
        {
          "internalType": "address",
          "name": "from",
          "type": "address"
        },
        {
          "internalType": "address",
          "name": "to",
          "type": "address"
        },
        {
          "internalType": "uint256",
          "name": "id",
          "type": "uint256"
        },
        {
          "internalType": "uint256",
          "name": "amount",
          "type": "uint256"
        },
        {
          "internalType": "bytes",
          "name": "data",
          "type": "bytes"
        }
      ],
      "name": "safeTransferFrom",
      "outputs": [],
      "stateMutability": "nonpayable",
      "type": "function"
    },
    {
      "inputs": [
        {
          "internalType": "address",
          "name": "operator",
          "type": "address"
        },
        {
          "internalType": "bool",
          "name": "approved",
          "type": "bool"
        }
      ],
      "name": "setApprovalForAll",
      "outputs": [],
      "stateMutability": "nonpayable",
      "type": "function"
    },
    {
      "inputs": [
        {
          "internalType": "bool",
          "name": "_state",
          "type": "bool"
        }
      ],
      "name": "setPause",
      "outputs": [],
      "stateMutability": "nonpayable",
      "type": "function"
    },
    {
      "inputs": [
        {
          "internalType": "bytes4",
          "name": "interfaceId",
          "type": "bytes4"
        }
      ],
      "name": "supportsInterface",
      "outputs": [
        {
          "internalType": "bool",
          "name": "",
          "type": "bool"
        }
      ],
      "stateMutability": "view",
      "type": "function"
    },
    {
      "inputs": [
        {
          "internalType": "address",
          "name": "newOwner",
          "type": "address"
        }
      ],
      "name": "transferOwnership",
      "outputs": [],
      "stateMutability": "nonpayable",
      "type": "function"
    },
    {
      "inputs": [
        {
          "internalType": "uint256",
          "name": "",
          "type": "uint256"
        }
      ],
      "name": "uri",
      "outputs": [
        {
          "internalType": "string",
          "name": "",
          "type": "string"
        }
      ],
      "stateMutability": "view",
      "type": "function"
    }
  ],
  "bytecode": "0x60806040526003805460ff60a01b191690553480156200001e57600080fd5b50604051620024c6380380620024c683398101604081905262000041916200028d565b806200004d8162000166565b5062000059336200017f565b506004602081905260017fabd6e7cb50984ff9c2f3e18a2660c3353dadf4e3291deeb275dae2cd1e44fe055560027f91da3fd0782e51c6b3986e9e672fd566868e71f3dbc2d6c2cd6fbb3e361af2a75560037f04cde762ef08b6b6c5ded8e8c4c0b3f4e5c9ad7342c88fcc93681b4588b73f05557f5c6b02db8b672415ffad906d7ccee10bd53dbad7d0b29e2bc0e50c93d5f310935560057ff7deed9399d719bf61dcb1322c056a03a885c275ab093673b0cc182b84bea0615560067feaa72e3626d79eea854e214b64a34b95d0c9348f5b8df0b074d774f7dba83c6555606460005260077f083fc81be30b6287dea23aa60f8ffaf268f507cdeac82ed9644e506b59c54ff055620003a6565b80516200017b906002906020840190620001d1565b5050565b600380546001600160a01b038381166001600160a01b0319831681179093556040519116919082907f8be0079c531659141344cd1fd0a4f28419497f9722a3daafe3b4186f6b6457e090600090a35050565b828054620001df9062000369565b90600052602060002090601f0160209004810192826200020357600085556200024e565b82601f106200021e57805160ff19168380011785556200024e565b828001600101855582156200024e579182015b828111156200024e57825182559160200191906001019062000231565b506200025c92915062000260565b5090565b5b808211156200025c576000815560010162000261565b634e487b7160e01b600052604160045260246000fd5b60006020808385031215620002a157600080fd5b82516001600160401b0380821115620002b957600080fd5b818501915085601f830112620002ce57600080fd5b815181811115620002e357620002e362000277565b604051601f8201601f19908116603f011681019083821181831017156200030e576200030e62000277565b8160405282815288868487010111156200032757600080fd5b600093505b828410156200034b57848401860151818501870152928501926200032c565b828411156200035d5760008684830101525b98975050505050505050565b600181811c908216806200037e57607f821691505b60208210811415620003a057634e487b7160e01b600052602260045260246000fd5b50919050565b61211080620003b66000396000f3fe60806040526004361061011e5760003560e01c8063715018a6116100a0578063d0e30db011610064578063d0e30db0146101d3578063e0391b091461034f578063e985e9c514610364578063f242432a146103ad578063f2fde38b146103cd57600080fd5b8063715018a6146102b25780637bf08621146102c75780638da5cb5b146102e7578063a22cb4651461030f578063bedb86fb1461032f57600080fd5b806336e4de9f116100e757806336e4de9f146101f55780634e1273f4146102155780635c975abb14610242578063629cb2e41461026357806368ef9d3c1461028557600080fd5b8062fdd58e1461012357806301ffc9a7146101565780630e89341c146101865780631b2ef1ca146101b35780632eb2c2d6146101d5575b600080fd5b34801561012f57600080fd5b5061014361013e36600461177d565b6103ed565b6040519081526020015b60405180910390f35b34801561016257600080fd5b506101766101713660046117bd565b610486565b604051901515815260200161014d565b34801561019257600080fd5b506101a66101a13660046117e1565b6104d6565b60405161014d9190611847565b3480156101bf57600080fd5b506101d36101ce36600461185a565b61056a565b005b3480156101e157600080fd5b506101d36101f03660046119c8565b61076e565b34801561020157600080fd5b506101d361021036600461185a565b6107ba565b34801561022157600080fd5b50610235610230366004611a72565b610962565b60405161014d9190611b78565b34801561024e57600080fd5b5060035461017690600160a01b900460ff1681565b34801561026f57600080fd5b50610278610a8c565b60405161014d9190611b8b565b34801561029157600080fd5b506102a56102a03660046117e1565b610b2b565b60405161014d9190611c0a565b3480156102be57600080fd5b506101d3610bdd565b3480156102d357600080fd5b506101d36102e236600461177d565b610bf1565b3480156102f357600080fd5b506003546040516001600160a01b03909116815260200161014d565b34801561031b57600080fd5b506101d361032a366004611c58565b610c5e565b34801561033b57600080fd5b506101d361034a366004611c8b565b610c6d565b34801561035b57600080fd5b50610278610c93565b34801561037057600080fd5b5061017661037f366004611ca6565b6001600160a01b03918216600090815260016020908152604080832093909416825291909152205460ff1690565b3480156103b957600080fd5b506101d36103c8366004611cd0565b610d1d565b3480156103d957600080fd5b506101d36103e8366004611d35565b610d62565b60006001600160a01b03831661045d5760405162461bcd60e51b815260206004820152602a60248201527f455243313135353a2061646472657373207a65726f206973206e6f742061207660448201526930b634b21037bbb732b960b11b60648201526084015b60405180910390fd5b506000818152602081815260408083206001600160a01b03861684529091529020545b92915050565b60006001600160e01b03198216636cdb3d1360e11b14806104b757506001600160e01b031982166303a24d0760e21b145b8061048057506301ffc9a760e01b6001600160e01b0319831614610480565b6060600280546104e590611d50565b80601f016020809104026020016040519081016040528092919081815260200182805461051190611d50565b801561055e5780601f106105335761010080835404028352916020019161055e565b820191906000526020600020905b81548152906001019060200180831161054157829003601f168201915b50505050509050919050565b610572610ddb565b600354600160a01b900460ff16156105c65760405162461bcd60e51b81526020600482015260176024820152764e46547320756e646572206d61696e74656e616e63652160481b6044820152606401610454565b60008281526004602090815260408083205481519283019091529181526105f290339083908590610e35565b600061060584662386f26fc10000611da1565b6040805160a08101825284815260208082018781523383850181815260608086018881524260808089018281526005805460018101825560008290529a517f036b6384b5eca791c62761152d0c79bb0604c104a5fb6f4eb0703f3154bb3db09b9091029a8b015596517f036b6384b5eca791c62761152d0c79bb0604c104a5fb6f4eb0703f3154bb3db18a015593517f036b6384b5eca791c62761152d0c79bb0604c104a5fb6f4eb0703f3154bb3db2890180546001600160a01b0319166001600160a01b0390921691909117905590517f036b6384b5eca791c62761152d0c79bb0604c104a5fb6f4eb0703f3154bb3db388015593517f036b6384b5eca791c62761152d0c79bb0604c104a5fb6f4eb0703f3154bb3db49096019590955585518981529384018a905294830186905292820152929350917fa6fab0f8def4cda731cc57e1237e5c4cdd5afc296a84c60accd4c7848f7bf21e910160405180910390a250505050565b6001600160a01b03851633148061078a575061078a853361037f565b6107a65760405162461bcd60e51b815260040161045490611dc0565b6107b38585858585610f49565b5050505050565b600354600160a01b900460ff161561080e5760405162461bcd60e51b81526020600482015260176024820152764e46547320756e646572206d61696e74656e616e63652160481b6044820152606401610454565b61082a6108236003546001600160a01b031690565b8383611126565b61084561083f6003546001600160a01b031690565b836103ed565b6005610852600185611e0f565b8154811061086257610862611e26565b90600052602060002090600502016001018190555061089233838360405180602001604052806000815250610e35565b33600081815260066020908152604091829020825160a08101845286815291820185905291810192909252906060810160056108cf600187611e0f565b815481106108df576108df611e26565b6000918252602080832060059283020160039081015485524294820194909452855460018082018855968452928190208551939092029091019182558301519381019390935560408201516002840180546001600160a01b0319166001600160a01b03909216919091179055606082015190830155608001516004909101555050565b606081518351146109c75760405162461bcd60e51b815260206004820152602960248201527f455243313135353a206163636f756e747320616e6420696473206c656e677468604482015268040dad2e6dac2e8c6d60bb1b6064820152608401610454565b6000835167ffffffffffffffff8111156109e3576109e361187c565b604051908082528060200260200182016040528015610a0c578160200160208202803683370190505b50905060005b8451811015610a8457610a57858281518110610a3057610a30611e26565b6020026020010151858381518110610a4a57610a4a611e26565b60200260200101516103ed565b828281518110610a6957610a69611e26565b6020908102919091010152610a7d81611e3c565b9050610a12565b509392505050565b336000908152600660209081526040808320805482518185028101850190935280835260609492939192909184015b82821015610b225760008481526020908190206040805160a08101825260058602909201805483526001808201548486015260028201546001600160a01b031692840192909252600381015460608401526004015460808301529083529092019101610abb565b50505050905090565b610b666040518060a00160405280600081526020016000815260200160006001600160a01b0316815260200160008152602001600081525090565b6005610b73600184611e0f565b81548110610b8357610b83611e26565b60009182526020918290206040805160a08101825260059093029091018054835260018101549383019390935260028301546001600160a01b03169082015260038201546060820152600490910154608082015292915050565b610be5610ddb565b610bef60006112a2565b565b610bf9610ddb565b6000826001600160a01b03168260405160006040518083038185875af1925050503d8060008114610c46576040519150601f19603f3d011682016040523d82523d6000602084013e610c4b565b606091505b5050905080610c5957600080fd5b505050565b610c693383836112f4565b5050565b610c75610ddb565b60038054911515600160a01b0260ff60a01b19909216919091179055565b606060058054806020026020016040519081016040528092919081815260200160009082821015610b225760008481526020908190206040805160a08101825260058602909201805483526001808201548486015260028201546001600160a01b031692840192909252600381015460608401526004015460808301529083529092019101610abb565b6001600160a01b038516331480610d395750610d39853361037f565b610d555760405162461bcd60e51b815260040161045490611dc0565b6107b385858585856113d5565b610d6a610ddb565b6001600160a01b038116610dcf5760405162461bcd60e51b815260206004820152602660248201527f4f776e61626c653a206e6577206f776e657220697320746865207a65726f206160448201526564647265737360d01b6064820152608401610454565b610dd8816112a2565b50565b6003546001600160a01b03163314610bef5760405162461bcd60e51b815260206004820181905260248201527f4f776e61626c653a2063616c6c6572206973206e6f7420746865206f776e65726044820152606401610454565b6001600160a01b038416610e955760405162461bcd60e51b815260206004820152602160248201527f455243313135353a206d696e7420746f20746865207a65726f206164647265736044820152607360f81b6064820152608401610454565b336000610ea1856114ff565b90506000610eae856114ff565b90506000868152602081815260408083206001600160a01b038b16845290915281208054879290610ee0908490611e57565b909155505060408051878152602081018790526001600160a01b03808a1692600092918716917fc3d58168c5ae7397731d063d5bbf3d657854427343f4c083240f7aacaa2d0f62910160405180910390a4610f408360008989898961154a565b50505050505050565b8151835114610fab5760405162461bcd60e51b815260206004820152602860248201527f455243313135353a2069647320616e6420616d6f756e7473206c656e677468206044820152670dad2e6dac2e8c6d60c31b6064820152608401610454565b6001600160a01b038416610fd15760405162461bcd60e51b815260040161045490611e6f565b3360005b84518110156110b8576000858281518110610ff257610ff2611e26565b60200260200101519050600085838151811061101057611010611e26565b602090810291909101810151600084815280835260408082206001600160a01b038e1683529093529190912054909150818110156110605760405162461bcd60e51b815260040161045490611eb4565b6000838152602081815260408083206001600160a01b038e8116855292528083208585039055908b1682528120805484929061109d908490611e57565b92505081905550505050806110b190611e3c565b9050610fd5565b50846001600160a01b0316866001600160a01b0316826001600160a01b03167f4a39dc06d4c0dbc64b70af90fd698a233a518aa5d07e595d983b8c0526c8f7fb8787604051611108929190611efe565b60405180910390a461111e8187878787876116a6565b505050505050565b6001600160a01b0383166111885760405162461bcd60e51b815260206004820152602360248201527f455243313135353a206275726e2066726f6d20746865207a65726f206164647260448201526265737360e81b6064820152608401610454565b336000611194846114ff565b905060006111a1846114ff565b60408051602080820183526000918290528882528181528282206001600160a01b038b168352905220549091508481101561122a5760405162461bcd60e51b8152602060048201526024808201527f455243313135353a206275726e20616d6f756e7420657863656564732062616c604482015263616e636560e01b6064820152608401610454565b6000868152602081815260408083206001600160a01b038b81168086529184528285208a8703905582518b81529384018a90529092908816917fc3d58168c5ae7397731d063d5bbf3d657854427343f4c083240f7aacaa2d0f62910160405180910390a4604080516020810190915260009052610f40565b600380546001600160a01b038381166001600160a01b0319831681179093556040519116919082907f8be0079c531659141344cd1fd0a4f28419497f9722a3daafe3b4186f6b6457e090600090a35050565b816001600160a01b0316836001600160a01b031614156113685760405162461bcd60e51b815260206004820152602960248201527f455243313135353a2073657474696e6720617070726f76616c20737461747573604482015268103337b91039b2b63360b91b6064820152608401610454565b6001600160a01b03838116600081815260016020908152604080832094871680845294825291829020805460ff191686151590811790915591519182527f17307eab39ab6107e8899845ad3d59bd9653f200f220920489ca2b5937696c31910160405180910390a3505050565b6001600160a01b0384166113fb5760405162461bcd60e51b815260040161045490611e6f565b336000611407856114ff565b90506000611414856114ff565b90506000868152602081815260408083206001600160a01b038c168452909152902054858110156114575760405162461bcd60e51b815260040161045490611eb4565b6000878152602081815260408083206001600160a01b038d8116855292528083208985039055908a16825281208054889290611494908490611e57565b909155505060408051888152602081018890526001600160a01b03808b16928c821692918816917fc3d58168c5ae7397731d063d5bbf3d657854427343f4c083240f7aacaa2d0f62910160405180910390a46114f4848a8a8a8a8a61154a565b505050505050505050565b6040805160018082528183019092526060916000919060208083019080368337019050509050828160008151811061153957611539611e26565b602090810291909101015292915050565b6001600160a01b0384163b1561111e5760405163f23a6e6160e01b81526001600160a01b0385169063f23a6e619061158e9089908990889088908890600401611f2c565b6020604051808303816000875af19250505080156115c9575060408051601f3d908101601f191682019092526115c691810190611f71565b60015b611676576115d5611f8e565b806308c379a0141561160f57506115ea611faa565b806115f55750611611565b8060405162461bcd60e51b81526004016104549190611847565b505b60405162461bcd60e51b815260206004820152603460248201527f455243313135353a207472616e7366657220746f206e6f6e20455243313135356044820152732932b1b2b4bb32b91034b6b83632b6b2b73a32b960611b6064820152608401610454565b6001600160e01b0319811663f23a6e6160e01b14610f405760405162461bcd60e51b815260040161045490612034565b6001600160a01b0384163b1561111e5760405163bc197c8160e01b81526001600160a01b0385169063bc197c81906116ea908990899088908890889060040161207c565b6020604051808303816000875af1925050508015611725575060408051601f3d908101601f1916820190925261172291810190611f71565b60015b611731576115d5611f8e565b6001600160e01b0319811663bc197c8160e01b14610f405760405162461bcd60e51b815260040161045490612034565b80356001600160a01b038116811461177857600080fd5b919050565b6000806040838503121561179057600080fd5b61179983611761565b946020939093013593505050565b6001600160e01b031981168114610dd857600080fd5b6000602082840312156117cf57600080fd5b81356117da816117a7565b9392505050565b6000602082840312156117f357600080fd5b5035919050565b6000815180845260005b8181101561182057602081850181015186830182015201611804565b81811115611832576000602083870101525b50601f01601f19169290920160200192915050565b6020815260006117da60208301846117fa565b6000806040838503121561186d57600080fd5b50508035926020909101359150565b634e487b7160e01b600052604160045260246000fd5b601f8201601f1916810167ffffffffffffffff811182821017156118b8576118b861187c565b6040525050565b600067ffffffffffffffff8211156118d9576118d961187c565b5060051b60200190565b600082601f8301126118f457600080fd5b81356020611901826118bf565b60405161190e8282611892565b83815260059390931b850182019282810191508684111561192e57600080fd5b8286015b848110156119495780358352918301918301611932565b509695505050505050565b600082601f83011261196557600080fd5b813567ffffffffffffffff81111561197f5761197f61187c565b604051611996601f8301601f191660200182611892565b8181528460208386010111156119ab57600080fd5b816020850160208301376000918101602001919091529392505050565b600080600080600060a086880312156119e057600080fd5b6119e986611761565b94506119f760208701611761565b9350604086013567ffffffffffffffff80821115611a1457600080fd5b611a2089838a016118e3565b94506060880135915080821115611a3657600080fd5b611a4289838a016118e3565b93506080880135915080821115611a5857600080fd5b50611a6588828901611954565b9150509295509295909350565b60008060408385031215611a8557600080fd5b823567ffffffffffffffff80821115611a9d57600080fd5b818501915085601f830112611ab157600080fd5b81356020611abe826118bf565b604051611acb8282611892565b83815260059390931b8501820192828101915089841115611aeb57600080fd5b948201945b83861015611b1057611b0186611761565b82529482019490820190611af0565b96505086013592505080821115611b2657600080fd5b50611b33858286016118e3565b9150509250929050565b600081518084526020808501945080840160005b83811015611b6d57815187529582019590820190600101611b51565b509495945050505050565b6020815260006117da6020830184611b3d565b6020808252825182820181905260009190848201906040850190845b81811015611bfe57611beb83855180518252602080820151908301526040808201516001600160a01b03169083015260608082015190830152608090810151910152565b9284019260a09290920191600101611ba7565b50909695505050505050565b81518152602080830151908201526040808301516001600160a01b031690820152606080830151908201526080808301519082015260a08101610480565b8035801515811461177857600080fd5b60008060408385031215611c6b57600080fd5b611c7483611761565b9150611c8260208401611c48565b90509250929050565b600060208284031215611c9d57600080fd5b6117da82611c48565b60008060408385031215611cb957600080fd5b611cc283611761565b9150611c8260208401611761565b600080600080600060a08688031215611ce857600080fd5b611cf186611761565b9450611cff60208701611761565b93506040860135925060608601359150608086013567ffffffffffffffff811115611d2957600080fd5b611a6588828901611954565b600060208284031215611d4757600080fd5b6117da82611761565b600181811c90821680611d6457607f821691505b60208210811415611d8557634e487b7160e01b600052602260045260246000fd5b50919050565b634e487b7160e01b600052601160045260246000fd5b6000816000190483118215151615611dbb57611dbb611d8b565b500290565b6020808252602f908201527f455243313135353a2063616c6c6572206973206e6f7420746f6b656e206f776e60408201526e195c881b9bdc88185c1c1c9bdd9959608a1b606082015260800190565b600082821015611e2157611e21611d8b565b500390565b634e487b7160e01b600052603260045260246000fd5b6000600019821415611e5057611e50611d8b565b5060010190565b60008219821115611e6a57611e6a611d8b565b500190565b60208082526025908201527f455243313135353a207472616e7366657220746f20746865207a65726f206164604082015264647265737360d81b606082015260800190565b6020808252602a908201527f455243313135353a20696e73756666696369656e742062616c616e636520666f60408201526939103a3930b739b332b960b11b606082015260800190565b604081526000611f116040830185611b3d565b8281036020840152611f238185611b3d565b95945050505050565b6001600160a01b03868116825285166020820152604081018490526060810183905260a060808201819052600090611f66908301846117fa565b979650505050505050565b600060208284031215611f8357600080fd5b81516117da816117a7565b600060033d1115611fa75760046000803e5060005160e01c5b90565b600060443d1015611fb85790565b6040516003193d81016004833e81513d67ffffffffffffffff8160248401118184111715611fe857505050505090565b82850191508151818111156120005750505050505090565b843d870101602082850101111561201a5750505050505090565b61202960208286010187611892565b509095945050505050565b60208082526028908201527f455243313135353a204552433131353552656365697665722072656a656374656040820152676420746f6b656e7360c01b606082015260800190565b6001600160a01b0386811682528516602082015260a0604082018190526000906120a890830186611b3d565b82810360608401526120ba8186611b3d565b905082810360808401526120ce81856117fa565b9897505050505050505056fea26469706673582212209541a3c3c281b4eb9968dd60ee9ab6cf4addc915cb818a10d1e0e4e35cbaff8464736f6c634300080b0033",
  "linkReferences": {},
  "deployedLinkReferences": {}
}